{"contracts/SingleTaxContract.sol":{"SingleTaxContract":{"abi":[{"inputs":[],"stateMutability":"nonpayable","type":"constructor"},{"inputs":[{"internalType":"uint256","name":"","type":"uint256"}],"name":"listTax","outputs":[{"internalType":"address","name":"","type":"address"}],"stateMutability":"view","type":"function"},{"inputs":[],"name":"owner","outputs":[{"internalType":"address","name":"","type":"address"}],"stateMutability":"view","type":"function"},{"inputs":[{"internalType":"address","name":"_addrBisnesman","type":"address"},{"internalType":"address","name":"_token","type":"address"}],"name":"payTax","outputs":[],"stateMutability":"nonpayable","type":"function"},{"inputs":[],"name":"readListTax","outputs":[{"internalType":"address[]","name":"","type":"address[]"}],"stateMutability":"view","type":"function"},{"inputs":[{"internalType":"address","name":"_taxpayer","type":"address"}],"name":"readNFTTaxpayer","outputs":[{"internalType":"uint256[]","name":"","type":"uint256[]"}],"stateMutability":"view","type":"function"},{"inputs":[{"internalType":"address[]","name":"_addrBisnesman","type":"address[]"},{"internalType":"address[]","name":"_addrBudgetInstitution","type":"address[]"}],"name":"readTaxPaid","outputs":[{"internalType":"uint256[][]","name":"","type":"uint256[][]"}],"stateMutability":"view","type":"function"},{"inputs":[{"internalType":"address[]","name":"_addrBisnesman","type":"address[]"},{"internalType":"address[]","name":"_addrBudgetInstitution","type":"address[]"}],"name":"readTaxes","outputs":[{"internalType":"uint256[][]","name":"","type":"uint256[][]"}],"stateMutability":"view","type":"function"},{"inputs":[{"internalType":"address","name":"_addrNFT","type":"address"}],"name":"setAddrNFT","outputs":[],"stateMutability":"nonpayable","type":"function"},{"inputs":[{"internalType":"address[]","name":"addrBisnesman","type":"address[]"},{"internalType":"address[][]","name":"addrBudgetInstitution","type":"address[][]"},{"internalType":"uint256[][]","name":"tax","type":"uint256[][]"}],"name":"taxDataDownload","outputs":[],"stateMutability":"nonpayable","type":"function"},{"inputs":[{"internalType":"address","name":"","type":"address"}],"name":"taxpayers","outputs":[{"internalType":"uint256","name":"taxBalance","type":"uint256"},{"internalType":"uint256","name":"amountTax","type":"uint256"},{"internalType":"bool","name":"status","type":"bool"},{"internalType":"bool","name":"taxPaidNoDebt","type":"bool"}],"stateMutability":"view","type":"function"},{"inputs":[],"name":"token","outputs":[{"internalType":"contract IERC20","name":"","type":"address"}],"stateMutability":"view","type":"function"},{"inputs":[{"internalType":"address[]","name":"_listTax","type":"address[]"},{"internalType":"string[]","name":"_listTaxNames","type":"string[]"}],"name":"uploadListTax","outputs":[],"stateMutability":"nonpayable","type":"function"}],"evm":{"bytecode":{"linkReferences":{},"object":"608060405234801561001057600080fd5b50600280546001600160a01b031916331790556000600755612d5d806100376000396000f3fe608060405234801561001057600080fd5b50600436106100d45760003560e01c80638da5cb5b11610081578063b957bad41161005b578063b957bad4146101b6578063cc4c620c1461021c578063fc0c546a1461023c57600080fd5b80638da5cb5b1461016557806396c711f614610190578063a1b38c9a146101a357600080fd5b80631905e2f9116100b25780631905e2f91461012a57806321085bb51461013f57806333b7ac421461015257600080fd5b806312a39915146100d957806313410189146101025780631689132a14610115575b600080fd5b6100ec6100e7366004612324565b61024f565b6040516100f99190612390565b60405180910390f35b6100ec610110366004612324565b610402565b61011d6105ab565b6040516100f9919061241a565b61013d610138366004612483565b610681565b005b61013d61014d3660046124b6565b61113e565b61013d610160366004612550565b611974565b600254610178906001600160a01b031681565b6040516001600160a01b0390911681526020016100f9565b61013d61019e366004612324565b611a05565b6101786101b1366004612572565b611b1a565b6101f46101c4366004612550565b60006020819052908152604090206004810154600582015460069092015490919060ff8082169161010090041684565b60408051948552602085019390935290151591830191909152151560608201526080016100f9565b61022f61022a366004612550565b611b44565b6040516100f9919061258b565b600554610178906001600160a01b031681565b606060008467ffffffffffffffff81111561026c5761026c6125c3565b60405190808252806020026020018201604052801561029f57816020015b606081526020019060019003908161028a5790505b50905060005b858110156103f85760008467ffffffffffffffff8111156102c8576102c86125c3565b6040519080825280602002602001820160405280156102f1578160200160208202803683370190505b50905060005b858110156103c5576000808a8a86818110610314576103146125d9565b90506020020160208101906103299190612550565b6001600160a01b03166001600160a01b031681526020019081526020016000206001016000888884818110610360576103606125d9565b90506020020160208101906103759190612550565b6001600160a01b03166001600160a01b03168152602001908152602001600020548282815181106103a8576103a86125d9565b6020908102919091010152806103bd81612605565b9150506102f7565b50808383815181106103d9576103d96125d9565b60200260200101819052505080806103f090612605565b9150506102a5565b5095945050505050565b606060008467ffffffffffffffff81111561041f5761041f6125c3565b60405190808252806020026020018201604052801561045257816020015b606081526020019060019003908161043d5790505b50905060005b858110156103f85760008467ffffffffffffffff81111561047b5761047b6125c3565b6040519080825280602002602001820160405280156104a4578160200160208202803683370190505b50905060005b85811015610578576000808a8a868181106104c7576104c76125d9565b90506020020160208101906104dc9190612550565b6001600160a01b03166001600160a01b031681526020019081526020016000206000016000888884818110610513576105136125d9565b90506020020160208101906105289190612550565b6001600160a01b03166001600160a01b031681526020019081526020016000205482828151811061055b5761055b6125d9565b60209081029190910101528061057081612605565b9150506104aa565b508083838151811061058c5761058c6125d9565b60200260200101819052505080806105a390612605565b915050610458565b60606105d660405180604001604052806007815260200166037bbb732b91d160cd1b81525033611bb0565b6002546001600160a01b031633146106215760405162461bcd60e51b81526020600482015260096024820152682737ba1037bbb732b960b91b60448201526064015b60405180910390fd5b600380548060200260200160405190810160405280929190818152602001828054801561067757602002820191906000526020600020905b81546001600160a01b03168152600190910190602001808311610659575b5050505050905090565b604080518082018252600781527f7374617475733a000000000000000000000000000000000000000000000000006020808301919091526001600160a01b03851660009081529081905291822060060154829182916106e3919060ff16611c12565b6001600160a01b03851660009081526020819052604090206006015460ff1661074e5760405162461bcd60e51b815260206004820152601260248201527f5461785061796572206e6f7420666f756e6400000000000000000000000000006044820152606401610618565b600580546001600160a01b0319166001600160a01b03861617905560408051808201909152600f81527f5f746f6b656e20616464726573733a000000000000000000000000000000000060208201526107a79085611bb0565b6005546040517f70a082310000000000000000000000000000000000000000000000000000000081523360048201526001600160a01b03909116906370a0823190602401602060405180830381865afa158015610808573d6000803e3d6000fd5b505050506040513d601f19601f8201168201806040525081019061082c919061261e565b925061086d6040518060400160405280601481526020017f7265616c42616c616e636554617870617965723a00000000000000000000000081525084611c70565b600083116108bd5760405162461bcd60e51b815260206004820152600960248201527f4e6f20546f6b656e7300000000000000000000000000000000000000000000006044820152606401610618565b6108f1604051806060016040528060268152602001612d026026913933600090815260208190526040902060040154611c70565b6109306040518060400160405280600e81526020017f616464726573732874686973293a00000000000000000000000000000000000081525030611bb0565b6001600160a01b03851660009081526020819052604090206004015461095a90601285901b612637565b915061099b6040518060400160405280600681526020017f6b6f6566313a000000000000000000000000000000000000000000000000000081525083611c70565b620400008211156109ad576204000091505b6109ec6040518060400160405280600681526020017f6b6f6566323a000000000000000000000000000000000000000000000000000081525083611c70565b610a2b6040518060400160405280600b81526020017f6d73672e73656e6465723a00000000000000000000000000000000000000000081525033611bb0565b610a6a6040518060400160405280600e81526020017f616464726573732874686973293a00000000000000000000000000000000000081525030611bb0565b600554604051636eb1769f60e11b81523360048201523060248201526000916001600160a01b03169063dd62ed3e90604401602060405180830381865afa158015610ab9573d6000803e3d6000fd5b505050506040513d601f19601f82011682018060405250810190610add919061261e565b9050610b0a6040518060400160405280600981526020016830b63636b7b732bc9d60b91b81525082611c70565b60005b60035460ff82161015611135576001600160a01b03871660009081526020819052604081206003805483919060ff8616908110610b4c57610b4c6125d9565b60009182526020808320909101546001600160a01b03168352820192909252604001902054111561112357610be06040518060400160405280600781526020017f4275646765743a0000000000000000000000000000000000000000000000000081525060038360ff1681548110610bc657610bc66125d9565b6000918252602090912001546001600160a01b0316611bb0565b662386f26fc100006012856000808b6001600160a01b03166001600160a01b03168152602001908152602001600020600101600060038660ff1681548110610c2a57610c2a6125d9565b60009182526020808320909101546001600160a01b039081168452838201949094526040928301822054938e1682528190529081206003805491929160ff8916908110610c7957610c796125d9565b60009182526020808320909101546001600160a01b03168352820192909252604001902054610ca89190612659565b610cb2919061266c565b610cbd92911c612637565b610cce90662386f26fc1000061266c565b9250610d0f6040518060400160405280600481526020017f7461783a0000000000000000000000000000000000000000000000000000000081525084611c70565b600554600380546000926001600160a01b0316916323b872dd918b919060ff8716908110610d3f57610d3f6125d9565b60009182526020909120015460405160e084901b7fffffffff000000000000000000000000000000000000000000000000000000001681526001600160a01b03928316600482015291166024820152604481018790526064016020604051808303816000875af1158015610db7573d6000803e3d6000fd5b505050506040513d601f19601f82011682018060405250810190610ddb9190612683565b905080610e2a5760405162461bcd60e51b815260206004820152601560248201527f546f6b656e207472616e73666572206661696c656400000000000000000000006044820152606401610618565b6001600160a01b03881660009081526020819052604081206004018054869290610e55908490612659565b92505081905550836000808a6001600160a01b03166001600160a01b03168152602001908152602001600020600101600060038560ff1681548110610e9c57610e9c6125d9565b60009182526020808320909101546001600160a01b0316835282019290925260400181208054909190610ed09084906126a5565b92505081905550610f3d6040518060400160405280600b81526020017f74617842616c616e63653a0000000000000000000000000000000000000000008152506000808b6001600160a01b03166001600160a01b0316815260200190815260200160002060040154611c70565b610fdf6040518060400160405280600881526020017f746178506169643a0000000000000000000000000000000000000000000000008152506000808b6001600160a01b03166001600160a01b03168152602001908152602001600020600101600060038660ff1681548110610fb557610fb56125d9565b60009182526020808320909101546001600160a01b03168352820192909252604001902054611c70565b600554604051636eb1769f60e11b81523360048201523060248201526001600160a01b039091169063dd62ed3e90604401602060405180830381865afa15801561102d573d6000803e3d6000fd5b505050506040513d601f19601f82011682018060405250810190611051919061261e565b925061107e6040518060400160405280600981526020016830b63636b7b732bc9d60b91b81525084611c70565b6001600160a01b0388166000908152602081905260408120600401549003611121576001600160a01b03808916600090815260208181526040918290206006908101805461ff0019166101001790558251808401909352601583527f6e6674436f6e74726163742e616464726573733a200000000000000000000000918301919091525461110c9216611bb0565b600654611121906001600160a01b0316611cce565b505b8061112d816126b8565b915050610b0d565b50505050505050565b61116760405180604001604052806007815260200166037bbb732b91d160cd1b81525033611bb0565b6002546001600160a01b031633146111ad5760405162461bcd60e51b81526020600482015260096024820152682737ba1037bbb732b960b91b6044820152606401610618565b60005b85811015611953576040805160008082526020820190925290808989858181106111dc576111dc6125d9565b90506020020160208101906111f19190612550565b6001600160a01b03166001600160a01b03168152602001908152602001600020600301908051906020019061122792919061220b565b50600080600089898581811061123f5761123f6125d9565b90506020020160208101906112549190612550565b6001600160a01b03166001600160a01b031681526020019081526020016000206004018190555060005b858583818110611290576112906125d9565b90506020028101906112a291906126d7565b90508110156118ab576000808989858181106112c0576112c06125d9565b90506020020160208101906112d59190612550565b6001600160a01b03166001600160a01b03168152602001908152602001600020600101600087878581811061130c5761130c6125d9565b905060200281019061131e91906126d7565b8481811061132e5761132e6125d9565b90506020020160208101906113439190612550565b6001600160a01b03166001600160a01b03168152602001908152602001600020546000808a8a86818110611379576113796125d9565b905060200201602081019061138e9190612550565b6001600160a01b03166001600160a01b0316815260200190815260200160002060000160008888868181106113c5576113c56125d9565b90506020028101906113d791906126d7565b858181106113e7576113e76125d9565b90506020020160208101906113fc9190612550565b6001600160a01b03166001600160a01b03168152602001908152602001600020546114279190612659565b6000808a8a8681811061143c5761143c6125d9565b90506020020160208101906114519190612550565b6001600160a01b03166001600160a01b031681526020019081526020016000206002016000888886818110611488576114886125d9565b905060200281019061149a91906126d7565b858181106114aa576114aa6125d9565b90506020020160208101906114bf9190612550565b6001600160a01b031681526020810191909152604001600020558383838181106114eb576114eb6125d9565b90506020028101906114fd91906126d7565b8281811061150d5761150d6125d9565b905060200201356000808a8a86818110611529576115296125d9565b905060200201602081019061153e9190612550565b6001600160a01b03166001600160a01b031681526020019081526020016000206000016000888886818110611575576115756125d9565b905060200281019061158791906126d7565b85818110611597576115976125d9565b90506020020160208101906115ac9190612550565b6001600160a01b03166001600160a01b03168152602001908152602001600020819055506000808989858181106115e5576115e56125d9565b90506020020160208101906115fa9190612550565b6001600160a01b03166001600160a01b0316815260200190815260200160002060030186868481811061162f5761162f6125d9565b905060200281019061164191906126d7565b83818110611651576116516125d9565b90506020020160208101906116669190612550565b81546001810183556000928352602083200180546001600160a01b0319166001600160a01b039290921691909117905580808a8a868181106116aa576116aa6125d9565b90506020020160208101906116bf9190612550565b6001600160a01b03166001600160a01b0316815260200190815260200160002060010160008888868181106116f6576116f66125d9565b905060200281019061170891906126d7565b85818110611718576117186125d9565b905060200201602081019061172d9190612550565b6001600160a01b03168152602081019190915260400160002055838383818110611759576117596125d9565b905060200281019061176b91906126d7565b8281811061177b5761177b6125d9565b905060200201356000808a8a86818110611797576117976125d9565b90506020020160208101906117ac9190612550565b6001600160a01b03166001600160a01b0316815260200190815260200160002060040160008282546117de91906126a5565b90915550600190506000808a8a868181106117fb576117fb6125d9565b90506020020160208101906118109190612550565b6001600160a01b0316815260208101919091526040016000908120600601805460ff19169215159290921790915580808a8a86818110611852576118526125d9565b90506020020160208101906118679190612550565b6001600160a01b03168152602081019190915260400160002060060180549115156101000261ff0019909216919091179055806118a381612605565b91505061127e565b506000808888848181106118c1576118c16125d9565b90506020020160208101906118d69190612550565b6001600160a01b03166001600160a01b031681526020019081526020016000206004015460008089898581811061190f5761190f6125d9565b90506020020160208101906119249190612550565b6001600160a01b031681526020810191909152604001600020600501558061194b81612605565b9150506111b0565b5060016007600082825461196791906126a5565b9091555050505050505050565b61199d60405180604001604052806007815260200166037bbb732b91d160cd1b81525033611bb0565b6002546001600160a01b031633146119e35760405162461bcd60e51b81526020600482015260096024820152682737ba1037bbb732b960b91b6044820152606401610618565b600680546001600160a01b0319166001600160a01b0392909216919091179055565b611a2e60405180604001604052806007815260200166037bbb732b91d160cd1b81525033611bb0565b6002546001600160a01b03163314611a745760405162461bcd60e51b81526020600482015260096024820152682737ba1037bbb732b960b91b6044820152606401610618565b611a8060038585612270565b5060005b81811015611b1357828282818110611a9e57611a9e6125d9565b9050602002810190611ab09190612721565b60046000888886818110611ac657611ac66125d9565b9050602002016020810190611adb9190612550565b6001600160a01b03168152602081019190915260400160002091611b009190836127f1565b5080611b0b81612605565b915050611a84565b5050505050565b60038181548110611b2a57600080fd5b6000918252602090912001546001600160a01b0316905081565b6001600160a01b038116600090815260016020908152604091829020805483518184028101840190945280845260609392830182828015611ba457602002820191906000526020600020905b815481526020019060010190808311611b90575b50505050509050919050565b611c0e8282604051602401611bc6929190612901565b60408051601f198184030181529190526020810180516001600160e01b03167f319af33300000000000000000000000000000000000000000000000000000000179052612008565b5050565b611c0e8282604051602401611c2892919061292c565b60408051601f198184030181529190526020810180516001600160e01b03167fc3b5563500000000000000000000000000000000000000000000000000000000179052612008565b611c0e8282604051602401611c86929190612950565b60408051601f198184030181529190526020810180516001600160e01b03167fb60e72cc00000000000000000000000000000000000000000000000000000000179052612008565b604080516020810190915260008082528291905b33600090815260208190526040902060030154811015611e4d5733600090815260208190526040812060030180548492600492909185908110611d2757611d276125d9565b60009182526020808320909101546001600160a01b03168352828101939093526040918201812033825292819052908120600381018054611da59360019390930192919087908110611d7b57611d7b6125d9565b60009182526020808320909101546001600160a01b03168352820192909252604001902054612029565b33600090815260208190526040902060030154611dc490600190612659565b8410611ddf5760405180602001604052806000815250611e16565b6040518060400160405280600181526020017f2c000000000000000000000000000000000000000000000000000000000000008152505b604051602001611e29949392919061298e565b60405160208183030381529060405291508080611e4590612605565b915050611ce2565b506000611e5b600754612029565b611e6442612029565b33600090815260208190526040902060050154611e8090612029565b84604051602001611e949493929190612adf565b60408051601f19818403018152828201909152600282527f312d00000000000000000000000000000000000000000000000000000000000060208301529150611edc906120c9565b6040517fd204c45e0000000000000000000000000000000000000000000000000000000081526000906001600160a01b0385169063d204c45e90611f269033908690600401612cc4565b6020604051808303816000875af1158015611f45573d6000803e3d6000fd5b505050506040513d601f19601f82011682018060405250810190611f69919061261e565b9050611fa96040518060400160405280600281526020017f322d0000000000000000000000000000000000000000000000000000000000008152506120c9565b336000908152600160208181526040808420805493840181558452928190209091018390558151808301909252600282527f332d00000000000000000000000000000000000000000000000000000000000090820152611b13906120c9565b80516a636f6e736f6c652e6c6f67602083016000808483855afa5050505050565b6060600061203683612128565b600101905060008167ffffffffffffffff811115612056576120566125c3565b6040519080825280601f01601f191660200182016040528015612080576020820181803683370190505b5090508181016020015b600019017f3031323334353637383961626364656600000000000000000000000000000000600a86061a8153600a850494508461208a57509392505050565b612125816040516024016120dd9190612cee565b60408051601f198184030181529190526020810180516001600160e01b03167f41304fac00000000000000000000000000000000000000000000000000000000179052612008565b50565b6000807a184f03e93ff9f4daa797ed6e38ed64bf6a1f0100000000000000008310612171577a184f03e93ff9f4daa797ed6e38ed64bf6a1f010000000000000000830492506040015b6d04ee2d6d415b85acef8100000000831061219d576d04ee2d6d415b85acef8100000000830492506020015b662386f26fc1000083106121bb57662386f26fc10000830492506010015b6305f5e10083106121d3576305f5e100830492506008015b61271083106121e757612710830492506004015b606483106121f9576064830492506002015b600a8310612205576001015b92915050565b828054828255906000526020600020908101928215612260579160200282015b8281111561226057825182546001600160a01b0319166001600160a01b0390911617825560209092019160019091019061222b565b5061226c9291506122c3565b5090565b828054828255906000526020600020908101928215612260579160200282015b828111156122605781546001600160a01b0319166001600160a01b03843516178255602090920191600190910190612290565b5b8082111561226c57600081556001016122c4565b60008083601f8401126122ea57600080fd5b50813567ffffffffffffffff81111561230257600080fd5b6020830191508360208260051b850101111561231d57600080fd5b9250929050565b6000806000806040858703121561233a57600080fd5b843567ffffffffffffffff8082111561235257600080fd5b61235e888389016122d8565b9096509450602087013591508082111561237757600080fd5b50612384878288016122d8565b95989497509550505050565b6000602080830181845280855180835260408601915060408160051b87010192508387016000805b8381101561240c57888603603f19018552825180518088529088019088880190845b818110156123f65783518352928a0192918a01916001016123da565b50909750505093860193918601916001016123b8565b509398975050505050505050565b6020808252825182820181905260009190848201906040850190845b8181101561245b5783516001600160a01b031683529284019291840191600101612436565b50909695505050505050565b80356001600160a01b038116811461247e57600080fd5b919050565b6000806040838503121561249657600080fd5b61249f83612467565b91506124ad60208401612467565b90509250929050565b600080600080600080606087890312156124cf57600080fd5b863567ffffffffffffffff808211156124e757600080fd5b6124f38a838b016122d8565b9098509650602089013591508082111561250c57600080fd5b6125188a838b016122d8565b9096509450604089013591508082111561253157600080fd5b5061253e89828a016122d8565b979a9699509497509295939492505050565b60006020828403121561256257600080fd5b61256b82612467565b9392505050565b60006020828403121561258457600080fd5b5035919050565b6020808252825182820181905260009190848201906040850190845b8181101561245b578351835292840192918401916001016125a7565b634e487b7160e01b600052604160045260246000fd5b634e487b7160e01b600052603260045260246000fd5b634e487b7160e01b600052601160045260246000fd5b600060018201612617576126176125ef565b5060010190565b60006020828403121561263057600080fd5b5051919050565b60008261265457634e487b7160e01b600052601260045260246000fd5b500490565b81810381811115612205576122056125ef565b8082028115828204841417612205576122056125ef565b60006020828403121561269557600080fd5b8151801515811461256b57600080fd5b80820180821115612205576122056125ef565b600060ff821660ff81036126ce576126ce6125ef565b60010192915050565b6000808335601e198436030181126126ee57600080fd5b83018035915067ffffffffffffffff82111561270957600080fd5b6020019150600581901b360382131561231d57600080fd5b6000808335601e1984360301811261273857600080fd5b83018035915067ffffffffffffffff82111561275357600080fd5b60200191503681900382131561231d57600080fd5b600181811c9082168061277c57607f821691505b60208210810361279c57634e487b7160e01b600052602260045260246000fd5b50919050565b601f8211156127ec57600081815260208120601f850160051c810160208610156127c95750805b601f850160051c820191505b818110156127e8578281556001016127d5565b5050505b505050565b67ffffffffffffffff831115612809576128096125c3565b61281d836128178354612768565b836127a2565b6000601f84116001811461285157600085156128395750838201355b600019600387901b1c1916600186901b178355611b13565b600083815260209020601f19861690835b828110156128825786850135825560209485019460019092019101612862565b508682101561289f5760001960f88860031b161c19848701351681555b505060018560011b0183555050505050565b60005b838110156128cc5781810151838201526020016128b4565b50506000910152565b600081518084526128ed8160208601602086016128b1565b601f01601f19169290920160200192915050565b60408152600061291460408301856128d5565b90506001600160a01b03831660208301529392505050565b60408152600061293f60408301856128d5565b905082151560208301529392505050565b60408152600061296360408301856128d5565b90508260208301529392505050565b600081516129848185602086016128b1565b9290920192915050565b6000855160206129a18285838b016128b1565b81840191507f7b227461785f6e616d65223a22000000000000000000000000000000000000008252600d600088546129d881612768565b600182811680156129f05760018114612a0957612a39565b60ff198416888701528215158302880186019450612a39565b8c6000528660002060005b84811015612a2f5781548a8201890152908301908801612a14565b5050858389010194505b50505050612a66817f222c0000000000000000000000000000000000000000000000000000000000009052565b7f2276616c7565223a2200000000000000000000000000000000000000000000006002820152612a99600b820189612972565b9350505050612ac7817f227d0000000000000000000000000000000000000000000000000000000000009052565b612ad46002820185612972565b979650505050505050565b7f7b226e616d65223a22544158204e4654222c202020202020202022646573637281527f697074696f6e223a2250726f6f66206f66207061796d656e74206f662074617860208201527f6573202d20230000000000000000000000000000000000000000000000000000604082015260008551612b63816046850160208a016128b1565b7f222c2020202020202020226174726962757465223a5b7b2274726169745f74796046918401918201527f7065223a2244617465206f66207061796d656e74222c2276616c7565223a220060668201528551612bc6816085840160208a016128b1565b7f227d2c20202020202020207b2274726169745f74797065223a22416d6f756e74608592909101918201527f206f6620546178222c2276616c7565223a22000000000000000000000000000060a58201528451612c2a8160b78401602089016128b1565b612c8b612c8560b7838501017f227d2c20202020202020207b2274726169745f74797065223a224c697374206f81527f6620546178222c2276616c7565223a5b00000000000000000000000000000000602082015260300190565b86612972565b915050612cb7817f5d7d5d7d000000000000000000000000000000000000000000000000000000009052565b6004019695505050505050565b6001600160a01b0383168152604060208201526000612ce660408301846128d5565b949350505050565b60208152600061256b60208301846128d556fe7461787061796572735b5f616464724269736e65736d616e5d2e74617842616c616e63653a20a2646970667358221220c445707be2a77e0c49befceaa91f5dd4400f508c5771ee168ad040ab12bd88b064736f6c63430008120033","opcodes":"PUSH1 0x80 PUSH1 0x40 MSTORE CALLVALUE DUP1 ISZERO PUSH2 0x10 JUMPI PUSH1 0x0 DUP1 REVERT JUMPDEST POP PUSH1 0x2 DUP1 SLOAD PUSH1 0x1 PUSH1 0x1 PUSH1 0xA0 SHL SUB NOT AND CALLER OR SWAP1 SSTORE PUSH1 0x0 PUSH1 0x7 SSTORE PUSH2 0x2D5D DUP1 PUSH2 0x37 PUSH1 0x0 CODECOPY PUSH1 0x0 RETURN INVALID PUSH1 0x80 PUSH1 0x40 MSTORE CALLVALUE DUP1 ISZERO PUSH2 0x10 JUMPI PUSH1 0x0 DUP1 REVERT JUMPDEST POP PUSH1 0x4 CALLDATASIZE LT PUSH2 0xD4 JUMPI PUSH1 0x0 CALLDATALOAD PUSH1 0xE0 SHR DUP1 PUSH4 0x8DA5CB5B GT PUSH2 0x81 JUMPI DUP1 PUSH4 0xB957BAD4 GT PUSH2 0x5B JUMPI DUP1 PUSH4 0xB957BAD4 EQ PUSH2 0x1B6 JUMPI DUP1 PUSH4 0xCC4C620C EQ PUSH2 0x21C JUMPI DUP1 PUSH4 0xFC0C546A EQ PUSH2 0x23C JUMPI PUSH1 0x0 DUP1 REVERT JUMPDEST DUP1 PUSH4 0x8DA5CB5B EQ PUSH2 0x165 JUMPI DUP1 PUSH4 0x96C711F6 EQ PUSH2 0x190 JUMPI DUP1 PUSH4 0xA1B38C9A EQ PUSH2 0x1A3 JUMPI PUSH1 0x0 DUP1 REVERT JUMPDEST DUP1 PUSH4 0x1905E2F9 GT PUSH2 0xB2 JUMPI DUP1 PUSH4 0x1905E2F9 EQ PUSH2 0x12A JUMPI DUP1 PUSH4 0x21085BB5 EQ PUSH2 0x13F JUMPI DUP1 PUSH4 0x33B7AC42 EQ PUSH2 0x152 JUMPI PUSH1 0x0 DUP1 REVERT JUMPDEST DUP1 PUSH4 0x12A39915 EQ PUSH2 0xD9 JUMPI DUP1 PUSH4 0x13410189 EQ PUSH2 0x102 JUMPI DUP1 PUSH4 0x1689132A EQ PUSH2 0x115 JUMPI JUMPDEST PUSH1 0x0 DUP1 REVERT JUMPDEST PUSH2 0xEC PUSH2 0xE7 CALLDATASIZE PUSH1 0x4 PUSH2 0x2324 JUMP JUMPDEST PUSH2 0x24F JUMP JUMPDEST PUSH1 0x40 MLOAD PUSH2 0xF9 SWAP2 SWAP1 PUSH2 0x2390 JUMP JUMPDEST PUSH1 0x40 MLOAD DUP1 SWAP2 SUB SWAP1 RETURN JUMPDEST PUSH2 0xEC PUSH2 0x110 CALLDATASIZE PUSH1 0x4 PUSH2 0x2324 JUMP JUMPDEST PUSH2 0x402 JUMP JUMPDEST PUSH2 0x11D PUSH2 0x5AB JUMP JUMPDEST PUSH1 0x40 MLOAD PUSH2 0xF9 SWAP2 SWAP1 PUSH2 0x241A JUMP JUMPDEST PUSH2 0x13D PUSH2 0x138 CALLDATASIZE PUSH1 0x4 PUSH2 0x2483 JUMP JUMPDEST PUSH2 0x681 JUMP JUMPDEST STOP JUMPDEST PUSH2 0x13D PUSH2 0x14D CALLDATASIZE PUSH1 0x4 PUSH2 0x24B6 JUMP JUMPDEST PUSH2 0x113E JUMP JUMPDEST PUSH2 0x13D PUSH2 0x160 CALLDATASIZE PUSH1 0x4 PUSH2 0x2550 JUMP JUMPDEST PUSH2 0x1974 JUMP JUMPDEST PUSH1 0x2 SLOAD PUSH2 0x178 SWAP1 PUSH1 0x1 PUSH1 0x1 PUSH1 0xA0 SHL SUB AND DUP2 JUMP JUMPDEST PUSH1 0x40 MLOAD PUSH1 0x1 PUSH1 0x1 PUSH1 0xA0 SHL SUB SWAP1 SWAP2 AND DUP2 MSTORE PUSH1 0x20 ADD PUSH2 0xF9 JUMP JUMPDEST PUSH2 0x13D PUSH2 0x19E CALLDATASIZE PUSH1 0x4 PUSH2 0x2324 JUMP JUMPDEST PUSH2 0x1A05 JUMP JUMPDEST PUSH2 0x178 PUSH2 0x1B1 CALLDATASIZE PUSH1 0x4 PUSH2 0x2572 JUMP JUMPDEST PUSH2 0x1B1A JUMP JUMPDEST PUSH2 0x1F4 PUSH2 0x1C4 CALLDATASIZE PUSH1 0x4 PUSH2 0x2550 JUMP JUMPDEST PUSH1 0x0 PUSH1 0x20 DUP2 SWAP1 MSTORE SWAP1 DUP2 MSTORE PUSH1 0x40 SWAP1 KECCAK256 PUSH1 0x4 DUP2 ADD SLOAD PUSH1 0x5 DUP3 ADD SLOAD PUSH1 0x6 SWAP1 SWAP3 ADD SLOAD SWAP1 SWAP2 SWAP1 PUSH1 0xFF DUP1 DUP3 AND SWAP2 PUSH2 0x100 SWAP1 DIV AND DUP5 JUMP JUMPDEST PUSH1 0x40 DUP1 MLOAD SWAP5 DUP6 MSTORE PUSH1 0x20 DUP6 ADD SWAP4 SWAP1 SWAP4 MSTORE SWAP1 ISZERO ISZERO SWAP2 DUP4 ADD SWAP2 SWAP1 SWAP2 MSTORE ISZERO ISZERO PUSH1 0x60 DUP3 ADD MSTORE PUSH1 0x80 ADD PUSH2 0xF9 JUMP JUMPDEST PUSH2 0x22F PUSH2 0x22A CALLDATASIZE PUSH1 0x4 PUSH2 0x2550 JUMP JUMPDEST PUSH2 0x1B44 JUMP JUMPDEST PUSH1 0x40 MLOAD PUSH2 0xF9 SWAP2 SWAP1 PUSH2 0x258B JUMP JUMPDEST PUSH1 0x5 SLOAD PUSH2 0x178 SWAP1 PUSH1 0x1 PUSH1 0x1 PUSH1 0xA0 SHL SUB AND DUP2 JUMP JUMPDEST PUSH1 0x60 PUSH1 0x0 DUP5 PUSH8 0xFFFFFFFFFFFFFFFF DUP2 GT ISZERO PUSH2 0x26C JUMPI PUSH2 0x26C PUSH2 0x25C3 JUMP JUMPDEST PUSH1 0x40 MLOAD SWAP1 DUP1 DUP3 MSTORE DUP1 PUSH1 0x20 MUL PUSH1 0x20 ADD DUP3 ADD PUSH1 0x40 MSTORE DUP1 ISZERO PUSH2 0x29F JUMPI DUP2 PUSH1 0x20 ADD JUMPDEST PUSH1 0x60 DUP2 MSTORE PUSH1 0x20 ADD SWAP1 PUSH1 0x1 SWAP1 SUB SWAP1 DUP2 PUSH2 0x28A JUMPI SWAP1 POP JUMPDEST POP SWAP1 POP PUSH1 0x0 JUMPDEST DUP6 DUP2 LT ISZERO PUSH2 0x3F8 JUMPI PUSH1 0x0 DUP5 PUSH8 0xFFFFFFFFFFFFFFFF DUP2 GT ISZERO PUSH2 0x2C8 JUMPI PUSH2 0x2C8 PUSH2 0x25C3 JUMP JUMPDEST PUSH1 0x40 MLOAD SWAP1 DUP1 DUP3 MSTORE DUP1 PUSH1 0x20 MUL PUSH1 0x20 ADD DUP3 ADD PUSH1 0x40 MSTORE DUP1 ISZERO PUSH2 0x2F1 JUMPI DUP2 PUSH1 0x20 ADD PUSH1 0x20 DUP3 MUL DUP1 CALLDATASIZE DUP4 CALLDATACOPY ADD SWAP1 POP JUMPDEST POP SWAP1 POP PUSH1 0x0 JUMPDEST DUP6 DUP2 LT ISZERO PUSH2 0x3C5 JUMPI PUSH1 0x0 DUP1 DUP11 DUP11 DUP7 DUP2 DUP2 LT PUSH2 0x314 JUMPI PUSH2 0x314 PUSH2 0x25D9 JUMP JUMPDEST SWAP1 POP PUSH1 0x20 MUL ADD PUSH1 0x20 DUP2 ADD SWAP1 PUSH2 0x329 SWAP2 SWAP1 PUSH2 0x2550 JUMP JUMPDEST PUSH1 0x1 PUSH1 0x1 PUSH1 0xA0 SHL SUB AND PUSH1 0x1 PUSH1 0x1 PUSH1 0xA0 SHL SUB AND DUP2 MSTORE PUSH1 0x20 ADD SWAP1 DUP2 MSTORE PUSH1 0x20 ADD PUSH1 0x0 KECCAK256 PUSH1 0x1 ADD PUSH1 0x0 DUP9 DUP9 DUP5 DUP2 DUP2 LT PUSH2 0x360 JUMPI PUSH2 0x360 PUSH2 0x25D9 JUMP JUMPDEST SWAP1 POP PUSH1 0x20 MUL ADD PUSH1 0x20 DUP2 ADD SWAP1 PUSH2 0x375 SWAP2 SWAP1 PUSH2 0x2550 JUMP JUMPDEST PUSH1 0x1 PUSH1 0x1 PUSH1 0xA0 SHL SUB AND PUSH1 0x1 PUSH1 0x1 PUSH1 0xA0 SHL SUB AND DUP2 MSTORE PUSH1 0x20 ADD SWAP1 DUP2 MSTORE PUSH1 0x20 ADD PUSH1 0x0 KECCAK256 SLOAD DUP3 DUP3 DUP2 MLOAD DUP2 LT PUSH2 0x3A8 JUMPI PUSH2 0x3A8 PUSH2 0x25D9 JUMP JUMPDEST PUSH1 0x20 SWAP1 DUP2 MUL SWAP2 SWAP1 SWAP2 ADD ADD MSTORE DUP1 PUSH2 0x3BD DUP2 PUSH2 0x2605 JUMP JUMPDEST SWAP2 POP POP PUSH2 0x2F7 JUMP JUMPDEST POP DUP1 DUP4 DUP4 DUP2 MLOAD DUP2 LT PUSH2 0x3D9 JUMPI PUSH2 0x3D9 PUSH2 0x25D9 JUMP JUMPDEST PUSH1 0x20 MUL PUSH1 0x20 ADD ADD DUP2 SWAP1 MSTORE POP POP DUP1 DUP1 PUSH2 0x3F0 SWAP1 PUSH2 0x2605 JUMP JUMPDEST SWAP2 POP POP PUSH2 0x2A5 JUMP JUMPDEST POP SWAP6 SWAP5 POP POP POP POP POP JUMP JUMPDEST PUSH1 0x60 PUSH1 0x0 DUP5 PUSH8 0xFFFFFFFFFFFFFFFF DUP2 GT ISZERO PUSH2 0x41F JUMPI PUSH2 0x41F PUSH2 0x25C3 JUMP JUMPDEST PUSH1 0x40 MLOAD SWAP1 DUP1 DUP3 MSTORE DUP1 PUSH1 0x20 MUL PUSH1 0x20 ADD DUP3 ADD PUSH1 0x40 MSTORE DUP1 ISZERO PUSH2 0x452 JUMPI DUP2 PUSH1 0x20 ADD JUMPDEST PUSH1 0x60 DUP2 MSTORE PUSH1 0x20 ADD SWAP1 PUSH1 0x1 SWAP1 SUB SWAP1 DUP2 PUSH2 0x43D JUMPI SWAP1 POP JUMPDEST POP SWAP1 POP PUSH1 0x0 JUMPDEST DUP6 DUP2 LT ISZERO PUSH2 0x3F8 JUMPI PUSH1 0x0 DUP5 PUSH8 0xFFFFFFFFFFFFFFFF DUP2 GT ISZERO PUSH2 0x47B JUMPI PUSH2 0x47B PUSH2 0x25C3 JUMP JUMPDEST PUSH1 0x40 MLOAD SWAP1 DUP1 DUP3 MSTORE DUP1 PUSH1 0x20 MUL PUSH1 0x20 ADD DUP3 ADD PUSH1 0x40 MSTORE DUP1 ISZERO PUSH2 0x4A4 JUMPI DUP2 PUSH1 0x20 ADD PUSH1 0x20 DUP3 MUL DUP1 CALLDATASIZE DUP4 CALLDATACOPY ADD SWAP1 POP JUMPDEST POP SWAP1 POP PUSH1 0x0 JUMPDEST DUP6 DUP2 LT ISZERO PUSH2 0x578 JUMPI PUSH1 0x0 DUP1 DUP11 DUP11 DUP7 DUP2 DUP2 LT PUSH2 0x4C7 JUMPI PUSH2 0x4C7 PUSH2 0x25D9 JUMP JUMPDEST SWAP1 POP PUSH1 0x20 MUL ADD PUSH1 0x20 DUP2 ADD SWAP1 PUSH2 0x4DC SWAP2 SWAP1 PUSH2 0x2550 JUMP JUMPDEST PUSH1 0x1 PUSH1 0x1 PUSH1 0xA0 SHL SUB AND PUSH1 0x1 PUSH1 0x1 PUSH1 0xA0 SHL SUB AND DUP2 MSTORE PUSH1 0x20 ADD SWAP1 DUP2 MSTORE PUSH1 0x20 ADD PUSH1 0x0 KECCAK256 PUSH1 0x0 ADD PUSH1 0x0 DUP9 DUP9 DUP5 DUP2 DUP2 LT PUSH2 0x513 JUMPI PUSH2 0x513 PUSH2 0x25D9 JUMP JUMPDEST SWAP1 POP PUSH1 0x20 MUL ADD PUSH1 0x20 DUP2 ADD SWAP1 PUSH2 0x528 SWAP2 SWAP1 PUSH2 0x2550 JUMP JUMPDEST PUSH1 0x1 PUSH1 0x1 PUSH1 0xA0 SHL SUB AND PUSH1 0x1 PUSH1 0x1 PUSH1 0xA0 SHL SUB AND DUP2 MSTORE PUSH1 0x20 ADD SWAP1 DUP2 MSTORE PUSH1 0x20 ADD PUSH1 0x0 KECCAK256 SLOAD DUP3 DUP3 DUP2 MLOAD DUP2 LT PUSH2 0x55B JUMPI PUSH2 0x55B PUSH2 0x25D9 JUMP JUMPDEST PUSH1 0x20 SWAP1 DUP2 MUL SWAP2 SWAP1 SWAP2 ADD ADD MSTORE DUP1 PUSH2 0x570 DUP2 PUSH2 0x2605 JUMP JUMPDEST SWAP2 POP POP PUSH2 0x4AA JUMP JUMPDEST POP DUP1 DUP4 DUP4 DUP2 MLOAD DUP2 LT PUSH2 0x58C JUMPI PUSH2 0x58C PUSH2 0x25D9 JUMP JUMPDEST PUSH1 0x20 MUL PUSH1 0x20 ADD ADD DUP2 SWAP1 MSTORE POP POP DUP1 DUP1 PUSH2 0x5A3 SWAP1 PUSH2 0x2605 JUMP JUMPDEST SWAP2 POP POP PUSH2 0x458 JUMP JUMPDEST PUSH1 0x60 PUSH2 0x5D6 PUSH1 0x40 MLOAD DUP1 PUSH1 0x40 ADD PUSH1 0x40 MSTORE DUP1 PUSH1 0x7 DUP2 MSTORE PUSH1 0x20 ADD PUSH7 0x37BBB732B91D1 PUSH1 0xCD SHL DUP2 MSTORE POP CALLER PUSH2 0x1BB0 JUMP JUMPDEST PUSH1 0x2 SLOAD PUSH1 0x1 PUSH1 0x1 PUSH1 0xA0 SHL SUB AND CALLER EQ PUSH2 0x621 JUMPI PUSH1 0x40 MLOAD PUSH3 0x461BCD PUSH1 0xE5 SHL DUP2 MSTORE PUSH1 0x20 PUSH1 0x4 DUP3 ADD MSTORE PUSH1 0x9 PUSH1 0x24 DUP3 ADD MSTORE PUSH9 0x2737BA1037BBB732B9 PUSH1 0xB9 SHL PUSH1 0x44 DUP3 ADD MSTORE PUSH1 0x64 ADD JUMPDEST PUSH1 0x40 MLOAD DUP1 SWAP2 SUB SWAP1 REVERT JUMPDEST PUSH1 0x3 DUP1 SLOAD DUP1 PUSH1 0x20 MUL PUSH1 0x20 ADD PUSH1 0x40 MLOAD SWAP1 DUP2 ADD PUSH1 0x40 MSTORE DUP1 SWAP3 SWAP2 SWAP1 DUP2 DUP2 MSTORE PUSH1 0x20 ADD DUP3 DUP1 SLOAD DUP1 ISZERO PUSH2 0x677 JUMPI PUSH1 0x20 MUL DUP3 ADD SWAP2 SWAP1 PUSH1 0x0 MSTORE PUSH1 0x20 PUSH1 0x0 KECCAK256 SWAP1 JUMPDEST DUP2 SLOAD PUSH1 0x1 PUSH1 0x1 PUSH1 0xA0 SHL SUB AND DUP2 MSTORE PUSH1 0x1 SWAP1 SWAP2 ADD SWAP1 PUSH1 0x20 ADD DUP1 DUP4 GT PUSH2 0x659 JUMPI JUMPDEST POP POP POP POP POP SWAP1 POP SWAP1 JUMP JUMPDEST PUSH1 0x40 DUP1 MLOAD DUP1 DUP3 ADD DUP3 MSTORE PUSH1 0x7 DUP2 MSTORE PUSH32 0x7374617475733A00000000000000000000000000000000000000000000000000 PUSH1 0x20 DUP1 DUP4 ADD SWAP2 SWAP1 SWAP2 MSTORE PUSH1 0x1 PUSH1 0x1 PUSH1 0xA0 SHL SUB DUP6 AND PUSH1 0x0 SWAP1 DUP2 MSTORE SWAP1 DUP2 SWAP1 MSTORE SWAP2 DUP3 KECCAK256 PUSH1 0x6 ADD SLOAD DUP3 SWAP2 DUP3 SWAP2 PUSH2 0x6E3 SWAP2 SWAP1 PUSH1 0xFF AND PUSH2 0x1C12 JUMP JUMPDEST PUSH1 0x1 PUSH1 0x1 PUSH1 0xA0 SHL SUB DUP6 AND PUSH1 0x0 SWAP1 DUP2 MSTORE PUSH1 0x20 DUP2 SWAP1 MSTORE PUSH1 0x40 SWAP1 KECCAK256 PUSH1 0x6 ADD SLOAD PUSH1 0xFF AND PUSH2 0x74E JUMPI PUSH1 0x40 MLOAD PUSH3 0x461BCD PUSH1 0xE5 SHL DUP2 MSTORE PUSH1 0x20 PUSH1 0x4 DUP3 ADD MSTORE PUSH1 0x12 PUSH1 0x24 DUP3 ADD MSTORE PUSH32 0x5461785061796572206E6F7420666F756E640000000000000000000000000000 PUSH1 0x44 DUP3 ADD MSTORE PUSH1 0x64 ADD PUSH2 0x618 JUMP JUMPDEST PUSH1 0x5 DUP1 SLOAD PUSH1 0x1 PUSH1 0x1 PUSH1 0xA0 SHL SUB NOT AND PUSH1 0x1 PUSH1 0x1 PUSH1 0xA0 SHL SUB DUP7 AND OR SWAP1 SSTORE PUSH1 0x40 DUP1 MLOAD DUP1 DUP3 ADD SWAP1 SWAP2 MSTORE PUSH1 0xF DUP2 MSTORE PUSH32 0x5F746F6B656E20616464726573733A0000000000000000000000000000000000 PUSH1 0x20 DUP3 ADD MSTORE PUSH2 0x7A7 SWAP1 DUP6 PUSH2 0x1BB0 JUMP JUMPDEST PUSH1 0x5 SLOAD PUSH1 0x40 MLOAD PUSH32 0x70A0823100000000000000000000000000000000000000000000000000000000 DUP2 MSTORE CALLER PUSH1 0x4 DUP3 ADD MSTORE PUSH1 0x1 PUSH1 0x1 PUSH1 0xA0 SHL SUB SWAP1 SWAP2 AND SWAP1 PUSH4 0x70A08231 SWAP1 PUSH1 0x24 ADD PUSH1 0x20 PUSH1 0x40 MLOAD DUP1 DUP4 SUB DUP2 DUP7 GAS STATICCALL ISZERO DUP1 ISZERO PUSH2 0x808 JUMPI RETURNDATASIZE PUSH1 0x0 DUP1 RETURNDATACOPY RETURNDATASIZE PUSH1 0x0 REVERT JUMPDEST POP POP POP POP PUSH1 0x40 MLOAD RETURNDATASIZE PUSH1 0x1F NOT PUSH1 0x1F DUP3 ADD AND DUP3 ADD DUP1 PUSH1 0x40 MSTORE POP DUP2 ADD SWAP1 PUSH2 0x82C SWAP2 SWAP1 PUSH2 0x261E JUMP JUMPDEST SWAP3 POP PUSH2 0x86D PUSH1 0x40 MLOAD DUP1 PUSH1 0x40 ADD PUSH1 0x40 MSTORE DUP1 PUSH1 0x14 DUP2 MSTORE PUSH1 0x20 ADD PUSH32 0x7265616C42616C616E636554617870617965723A000000000000000000000000 DUP2 MSTORE POP DUP5 PUSH2 0x1C70 JUMP JUMPDEST PUSH1 0x0 DUP4 GT PUSH2 0x8BD JUMPI PUSH1 0x40 MLOAD PUSH3 0x461BCD PUSH1 0xE5 SHL DUP2 MSTORE PUSH1 0x20 PUSH1 0x4 DUP3 ADD MSTORE PUSH1 0x9 PUSH1 0x24 DUP3 ADD MSTORE PUSH32 0x4E6F20546F6B656E730000000000000000000000000000000000000000000000 PUSH1 0x44 DUP3 ADD MSTORE PUSH1 0x64 ADD PUSH2 0x618 JUMP JUMPDEST PUSH2 0x8F1 PUSH1 0x40 MLOAD DUP1 PUSH1 0x60 ADD PUSH1 0x40 MSTORE DUP1 PUSH1 0x26 DUP2 MSTORE PUSH1 0x20 ADD PUSH2 0x2D02 PUSH1 0x26 SWAP2 CODECOPY CALLER PUSH1 0x0 SWAP1 DUP2 MSTORE PUSH1 0x20 DUP2 SWAP1 MSTORE PUSH1 0x40 SWAP1 KECCAK256 PUSH1 0x4 ADD SLOAD PUSH2 0x1C70 JUMP JUMPDEST PUSH2 0x930 PUSH1 0x40 MLOAD DUP1 PUSH1 0x40 ADD PUSH1 0x40 MSTORE DUP1 PUSH1 0xE DUP2 MSTORE PUSH1 0x20 ADD PUSH32 0x616464726573732874686973293A000000000000000000000000000000000000 DUP2 MSTORE POP ADDRESS PUSH2 0x1BB0 JUMP JUMPDEST PUSH1 0x1 PUSH1 0x1 PUSH1 0xA0 SHL SUB DUP6 AND PUSH1 0x0 SWAP1 DUP2 MSTORE PUSH1 0x20 DUP2 SWAP1 MSTORE PUSH1 0x40 SWAP1 KECCAK256 PUSH1 0x4 ADD SLOAD PUSH2 0x95A SWAP1 PUSH1 0x12 DUP6 SWAP1 SHL PUSH2 0x2637 JUMP JUMPDEST SWAP2 POP PUSH2 0x99B PUSH1 0x40 MLOAD DUP1 PUSH1 0x40 ADD PUSH1 0x40 MSTORE DUP1 PUSH1 0x6 DUP2 MSTORE PUSH1 0x20 ADD PUSH32 0x6B6F6566313A0000000000000000000000000000000000000000000000000000 DUP2 MSTORE POP DUP4 PUSH2 0x1C70 JUMP JUMPDEST PUSH3 0x40000 DUP3 GT ISZERO PUSH2 0x9AD JUMPI PUSH3 0x40000 SWAP2 POP JUMPDEST PUSH2 0x9EC PUSH1 0x40 MLOAD DUP1 PUSH1 0x40 ADD PUSH1 0x40 MSTORE DUP1 PUSH1 0x6 DUP2 MSTORE PUSH1 0x20 ADD PUSH32 0x6B6F6566323A0000000000000000000000000000000000000000000000000000 DUP2 MSTORE POP DUP4 PUSH2 0x1C70 JUMP JUMPDEST PUSH2 0xA2B PUSH1 0x40 MLOAD DUP1 PUSH1 0x40 ADD PUSH1 0x40 MSTORE DUP1 PUSH1 0xB DUP2 MSTORE PUSH1 0x20 ADD PUSH32 0x6D73672E73656E6465723A000000000000000000000000000000000000000000 DUP2 MSTORE POP CALLER PUSH2 0x1BB0 JUMP JUMPDEST PUSH2 0xA6A PUSH1 0x40 MLOAD DUP1 PUSH1 0x40 ADD PUSH1 0x40 MSTORE DUP1 PUSH1 0xE DUP2 MSTORE PUSH1 0x20 ADD PUSH32 0x616464726573732874686973293A000000000000000000000000000000000000 DUP2 MSTORE POP ADDRESS PUSH2 0x1BB0 JUMP JUMPDEST PUSH1 0x5 SLOAD PUSH1 0x40 MLOAD PUSH4 0x6EB1769F PUSH1 0xE1 SHL DUP2 MSTORE CALLER PUSH1 0x4 DUP3 ADD MSTORE ADDRESS PUSH1 0x24 DUP3 ADD MSTORE PUSH1 0x0 SWAP2 PUSH1 0x1 PUSH1 0x1 PUSH1 0xA0 SHL SUB AND SWAP1 PUSH4 0xDD62ED3E SWAP1 PUSH1 0x44 ADD PUSH1 0x20 PUSH1 0x40 MLOAD DUP1 DUP4 SUB DUP2 DUP7 GAS STATICCALL ISZERO DUP1 ISZERO PUSH2 0xAB9 JUMPI RETURNDATASIZE PUSH1 0x0 DUP1 RETURNDATACOPY RETURNDATASIZE PUSH1 0x0 REVERT JUMPDEST POP POP POP POP PUSH1 0x40 MLOAD RETURNDATASIZE PUSH1 0x1F NOT PUSH1 0x1F DUP3 ADD AND DUP3 ADD DUP1 PUSH1 0x40 MSTORE POP DUP2 ADD SWAP1 PUSH2 0xADD SWAP2 SWAP1 PUSH2 0x261E JUMP JUMPDEST SWAP1 POP PUSH2 0xB0A PUSH1 0x40 MLOAD DUP1 PUSH1 0x40 ADD PUSH1 0x40 MSTORE DUP1 PUSH1 0x9 DUP2 MSTORE PUSH1 0x20 ADD PUSH9 0x30B63636B7B732BC9D PUSH1 0xB9 SHL DUP2 MSTORE POP DUP3 PUSH2 0x1C70 JUMP JUMPDEST PUSH1 0x0 JUMPDEST PUSH1 0x3 SLOAD PUSH1 0xFF DUP3 AND LT ISZERO PUSH2 0x1135 JUMPI PUSH1 0x1 PUSH1 0x1 PUSH1 0xA0 SHL SUB DUP8 AND PUSH1 0x0 SWAP1 DUP2 MSTORE PUSH1 0x20 DUP2 SWAP1 MSTORE PUSH1 0x40 DUP2 KECCAK256 PUSH1 0x3 DUP1 SLOAD DUP4 SWAP2 SWAP1 PUSH1 0xFF DUP7 AND SWAP1 DUP2 LT PUSH2 0xB4C JUMPI PUSH2 0xB4C PUSH2 0x25D9 JUMP JUMPDEST PUSH1 0x0 SWAP2 DUP3 MSTORE PUSH1 0x20 DUP1 DUP4 KECCAK256 SWAP1 SWAP2 ADD SLOAD PUSH1 0x1 PUSH1 0x1 PUSH1 0xA0 SHL SUB AND DUP4 MSTORE DUP3 ADD SWAP3 SWAP1 SWAP3 MSTORE PUSH1 0x40 ADD SWAP1 KECCAK256 SLOAD GT ISZERO PUSH2 0x1123 JUMPI PUSH2 0xBE0 PUSH1 0x40 MLOAD DUP1 PUSH1 0x40 ADD PUSH1 0x40 MSTORE DUP1 PUSH1 0x7 DUP2 MSTORE PUSH1 0x20 ADD PUSH32 0x4275646765743A00000000000000000000000000000000000000000000000000 DUP2 MSTORE POP PUSH1 0x3 DUP4 PUSH1 0xFF AND DUP2 SLOAD DUP2 LT PUSH2 0xBC6 JUMPI PUSH2 0xBC6 PUSH2 0x25D9 JUMP JUMPDEST PUSH1 0x0 SWAP2 DUP3 MSTORE PUSH1 0x20 SWAP1 SWAP2 KECCAK256 ADD SLOAD PUSH1 0x1 PUSH1 0x1 PUSH1 0xA0 SHL SUB AND PUSH2 0x1BB0 JUMP JUMPDEST PUSH7 0x2386F26FC10000 PUSH1 0x12 DUP6 PUSH1 0x0 DUP1 DUP12 PUSH1 0x1 PUSH1 0x1 PUSH1 0xA0 SHL SUB AND PUSH1 0x1 PUSH1 0x1 PUSH1 0xA0 SHL SUB AND DUP2 MSTORE PUSH1 0x20 ADD SWAP1 DUP2 MSTORE PUSH1 0x20 ADD PUSH1 0x0 KECCAK256 PUSH1 0x1 ADD PUSH1 0x0 PUSH1 0x3 DUP7 PUSH1 0xFF AND DUP2 SLOAD DUP2 LT PUSH2 0xC2A JUMPI PUSH2 0xC2A PUSH2 0x25D9 JUMP JUMPDEST PUSH1 0x0 SWAP2 DUP3 MSTORE PUSH1 0x20 DUP1 DUP4 KECCAK256 SWAP1 SWAP2 ADD SLOAD PUSH1 0x1 PUSH1 0x1 PUSH1 0xA0 SHL SUB SWAP1 DUP2 AND DUP5 MSTORE DUP4 DUP3 ADD SWAP5 SWAP1 SWAP5 MSTORE PUSH1 0x40 SWAP3 DUP4 ADD DUP3 KECCAK256 SLOAD SWAP4 DUP15 AND DUP3 MSTORE DUP2 SWAP1 MSTORE SWAP1 DUP2 KECCAK256 PUSH1 0x3 DUP1 SLOAD SWAP2 SWAP3 SWAP2 PUSH1 0xFF DUP10 AND SWAP1 DUP2 LT PUSH2 0xC79 JUMPI PUSH2 0xC79 PUSH2 0x25D9 JUMP JUMPDEST PUSH1 0x0 SWAP2 DUP3 MSTORE PUSH1 0x20 DUP1 DUP4 KECCAK256 SWAP1 SWAP2 ADD SLOAD PUSH1 0x1 PUSH1 0x1 PUSH1 0xA0 SHL SUB AND DUP4 MSTORE DUP3 ADD SWAP3 SWAP1 SWAP3 MSTORE PUSH1 0x40 ADD SWAP1 KECCAK256 SLOAD PUSH2 0xCA8 SWAP2 SWAP1 PUSH2 0x2659 JUMP JUMPDEST PUSH2 0xCB2 SWAP2 SWAP1 PUSH2 0x266C JUMP JUMPDEST PUSH2 0xCBD SWAP3 SWAP2 SHR PUSH2 0x2637 JUMP JUMPDEST PUSH2 0xCCE SWAP1 PUSH7 0x2386F26FC10000 PUSH2 0x266C JUMP JUMPDEST SWAP3 POP PUSH2 0xD0F PUSH1 0x40 MLOAD DUP1 PUSH1 0x40 ADD PUSH1 0x40 MSTORE DUP1 PUSH1 0x4 DUP2 MSTORE PUSH1 0x20 ADD PUSH32 0x7461783A00000000000000000000000000000000000000000000000000000000 DUP2 MSTORE POP DUP5 PUSH2 0x1C70 JUMP JUMPDEST PUSH1 0x5 SLOAD PUSH1 0x3 DUP1 SLOAD PUSH1 0x0 SWAP3 PUSH1 0x1 PUSH1 0x1 PUSH1 0xA0 SHL SUB AND SWAP2 PUSH4 0x23B872DD SWAP2 DUP12 SWAP2 SWAP1 PUSH1 0xFF DUP8 AND SWAP1 DUP2 LT PUSH2 0xD3F JUMPI PUSH2 0xD3F PUSH2 0x25D9 JUMP JUMPDEST PUSH1 0x0 SWAP2 DUP3 MSTORE PUSH1 0x20 SWAP1 SWAP2 KECCAK256 ADD SLOAD PUSH1 0x40 MLOAD PUSH1 0xE0 DUP5 SWAP1 SHL PUSH32 0xFFFFFFFF00000000000000000000000000000000000000000000000000000000 AND DUP2 MSTORE PUSH1 0x1 PUSH1 0x1 PUSH1 0xA0 SHL SUB SWAP3 DUP4 AND PUSH1 0x4 DUP3 ADD MSTORE SWAP2 AND PUSH1 0x24 DUP3 ADD MSTORE PUSH1 0x44 DUP2 ADD DUP8 SWAP1 MSTORE PUSH1 0x64 ADD PUSH1 0x20 PUSH1 0x40 MLOAD DUP1 DUP4 SUB DUP2 PUSH1 0x0 DUP8 GAS CALL ISZERO DUP1 ISZERO PUSH2 0xDB7 JUMPI RETURNDATASIZE PUSH1 0x0 DUP1 RETURNDATACOPY RETURNDATASIZE PUSH1 0x0 REVERT JUMPDEST POP POP POP POP PUSH1 0x40 MLOAD RETURNDATASIZE PUSH1 0x1F NOT PUSH1 0x1F DUP3 ADD AND DUP3 ADD DUP1 PUSH1 0x40 MSTORE POP DUP2 ADD SWAP1 PUSH2 0xDDB SWAP2 SWAP1 PUSH2 0x2683 JUMP JUMPDEST SWAP1 POP DUP1 PUSH2 0xE2A JUMPI PUSH1 0x40 MLOAD PUSH3 0x461BCD PUSH1 0xE5 SHL DUP2 MSTORE PUSH1 0x20 PUSH1 0x4 DUP3 ADD MSTORE PUSH1 0x15 PUSH1 0x24 DUP3 ADD MSTORE PUSH32 0x546F6B656E207472616E73666572206661696C65640000000000000000000000 PUSH1 0x44 DUP3 ADD MSTORE PUSH1 0x64 ADD PUSH2 0x618 JUMP JUMPDEST PUSH1 0x1 PUSH1 0x1 PUSH1 0xA0 SHL SUB DUP9 AND PUSH1 0x0 SWAP1 DUP2 MSTORE PUSH1 0x20 DUP2 SWAP1 MSTORE PUSH1 0x40 DUP2 KECCAK256 PUSH1 0x4 ADD DUP1 SLOAD DUP7 SWAP3 SWAP1 PUSH2 0xE55 SWAP1 DUP5 SWAP1 PUSH2 0x2659 JUMP JUMPDEST SWAP3 POP POP DUP2 SWAP1 SSTORE POP DUP4 PUSH1 0x0 DUP1 DUP11 PUSH1 0x1 PUSH1 0x1 PUSH1 0xA0 SHL SUB AND PUSH1 0x1 PUSH1 0x1 PUSH1 0xA0 SHL SUB AND DUP2 MSTORE PUSH1 0x20 ADD SWAP1 DUP2 MSTORE PUSH1 0x20 ADD PUSH1 0x0 KECCAK256 PUSH1 0x1 ADD PUSH1 0x0 PUSH1 0x3 DUP6 PUSH1 0xFF AND DUP2 SLOAD DUP2 LT PUSH2 0xE9C JUMPI PUSH2 0xE9C PUSH2 0x25D9 JUMP JUMPDEST PUSH1 0x0 SWAP2 DUP3 MSTORE PUSH1 0x20 DUP1 DUP4 KECCAK256 SWAP1 SWAP2 ADD SLOAD PUSH1 0x1 PUSH1 0x1 PUSH1 0xA0 SHL SUB AND DUP4 MSTORE DUP3 ADD SWAP3 SWAP1 SWAP3 MSTORE PUSH1 0x40 ADD DUP2 KECCAK256 DUP1 SLOAD SWAP1 SWAP2 SWAP1 PUSH2 0xED0 SWAP1 DUP5 SWAP1 PUSH2 0x26A5 JUMP JUMPDEST SWAP3 POP POP DUP2 SWAP1 SSTORE POP PUSH2 0xF3D PUSH1 0x40 MLOAD DUP1 PUSH1 0x40 ADD PUSH1 0x40 MSTORE DUP1 PUSH1 0xB DUP2 MSTORE PUSH1 0x20 ADD PUSH32 0x74617842616C616E63653A000000000000000000000000000000000000000000 DUP2 MSTORE POP PUSH1 0x0 DUP1 DUP12 PUSH1 0x1 PUSH1 0x1 PUSH1 0xA0 SHL SUB AND PUSH1 0x1 PUSH1 0x1 PUSH1 0xA0 SHL SUB AND DUP2 MSTORE PUSH1 0x20 ADD SWAP1 DUP2 MSTORE PUSH1 0x20 ADD PUSH1 0x0 KECCAK256 PUSH1 0x4 ADD SLOAD PUSH2 0x1C70 JUMP JUMPDEST PUSH2 0xFDF PUSH1 0x40 MLOAD DUP1 PUSH1 0x40 ADD PUSH1 0x40 MSTORE DUP1 PUSH1 0x8 DUP2 MSTORE PUSH1 0x20 ADD PUSH32 0x746178506169643A000000000000000000000000000000000000000000000000 DUP2 MSTORE POP PUSH1 0x0 DUP1 DUP12 PUSH1 0x1 PUSH1 0x1 PUSH1 0xA0 SHL SUB AND PUSH1 0x1 PUSH1 0x1 PUSH1 0xA0 SHL SUB AND DUP2 MSTORE PUSH1 0x20 ADD SWAP1 DUP2 MSTORE PUSH1 0x20 ADD PUSH1 0x0 KECCAK256 PUSH1 0x1 ADD PUSH1 0x0 PUSH1 0x3 DUP7 PUSH1 0xFF AND DUP2 SLOAD DUP2 LT PUSH2 0xFB5 JUMPI PUSH2 0xFB5 PUSH2 0x25D9 JUMP JUMPDEST PUSH1 0x0 SWAP2 DUP3 MSTORE PUSH1 0x20 DUP1 DUP4 KECCAK256 SWAP1 SWAP2 ADD SLOAD PUSH1 0x1 PUSH1 0x1 PUSH1 0xA0 SHL SUB AND DUP4 MSTORE DUP3 ADD SWAP3 SWAP1 SWAP3 MSTORE PUSH1 0x40 ADD SWAP1 KECCAK256 SLOAD PUSH2 0x1C70 JUMP JUMPDEST PUSH1 0x5 SLOAD PUSH1 0x40 MLOAD PUSH4 0x6EB1769F PUSH1 0xE1 SHL DUP2 MSTORE CALLER PUSH1 0x4 DUP3 ADD MSTORE ADDRESS PUSH1 0x24 DUP3 ADD MSTORE PUSH1 0x1 PUSH1 0x1 PUSH1 0xA0 SHL SUB SWAP1 SWAP2 AND SWAP1 PUSH4 0xDD62ED3E SWAP1 PUSH1 0x44 ADD PUSH1 0x20 PUSH1 0x40 MLOAD DUP1 DUP4 SUB DUP2 DUP7 GAS STATICCALL ISZERO DUP1 ISZERO PUSH2 0x102D JUMPI RETURNDATASIZE PUSH1 0x0 DUP1 RETURNDATACOPY RETURNDATASIZE PUSH1 0x0 REVERT JUMPDEST POP POP POP POP PUSH1 0x40 MLOAD RETURNDATASIZE PUSH1 0x1F NOT PUSH1 0x1F DUP3 ADD AND DUP3 ADD DUP1 PUSH1 0x40 MSTORE POP DUP2 ADD SWAP1 PUSH2 0x1051 SWAP2 SWAP1 PUSH2 0x261E JUMP JUMPDEST SWAP3 POP PUSH2 0x107E PUSH1 0x40 MLOAD DUP1 PUSH1 0x40 ADD PUSH1 0x40 MSTORE DUP1 PUSH1 0x9 DUP2 MSTORE PUSH1 0x20 ADD PUSH9 0x30B63636B7B732BC9D PUSH1 0xB9 SHL DUP2 MSTORE POP DUP5 PUSH2 0x1C70 JUMP JUMPDEST PUSH1 0x1 PUSH1 0x1 PUSH1 0xA0 SHL SUB DUP9 AND PUSH1 0x0 SWAP1 DUP2 MSTORE PUSH1 0x20 DUP2 SWAP1 MSTORE PUSH1 0x40 DUP2 KECCAK256 PUSH1 0x4 ADD SLOAD SWAP1 SUB PUSH2 0x1121 JUMPI PUSH1 0x1 PUSH1 0x1 PUSH1 0xA0 SHL SUB DUP1 DUP10 AND PUSH1 0x0 SWAP1 DUP2 MSTORE PUSH1 0x20 DUP2 DUP2 MSTORE PUSH1 0x40 SWAP2 DUP3 SWAP1 KECCAK256 PUSH1 0x6 SWAP1 DUP2 ADD DUP1 SLOAD PUSH2 0xFF00 NOT AND PUSH2 0x100 OR SWAP1 SSTORE DUP3 MLOAD DUP1 DUP5 ADD SWAP1 SWAP4 MSTORE PUSH1 0x15 DUP4 MSTORE PUSH32 0x6E6674436F6E74726163742E616464726573733A200000000000000000000000 SWAP2 DUP4 ADD SWAP2 SWAP1 SWAP2 MSTORE SLOAD PUSH2 0x110C SWAP3 AND PUSH2 0x1BB0 JUMP JUMPDEST PUSH1 0x6 SLOAD PUSH2 0x1121 SWAP1 PUSH1 0x1 PUSH1 0x1 PUSH1 0xA0 SHL SUB AND PUSH2 0x1CCE JUMP JUMPDEST POP JUMPDEST DUP1 PUSH2 0x112D DUP2 PUSH2 0x26B8 JUMP JUMPDEST SWAP2 POP POP PUSH2 0xB0D JUMP JUMPDEST POP POP POP POP POP POP POP JUMP JUMPDEST PUSH2 0x1167 PUSH1 0x40 MLOAD DUP1 PUSH1 0x40 ADD PUSH1 0x40 MSTORE DUP1 PUSH1 0x7 DUP2 MSTORE PUSH1 0x20 ADD PUSH7 0x37BBB732B91D1 PUSH1 0xCD SHL DUP2 MSTORE POP CALLER PUSH2 0x1BB0 JUMP JUMPDEST PUSH1 0x2 SLOAD PUSH1 0x1 PUSH1 0x1 PUSH1 0xA0 SHL SUB AND CALLER EQ PUSH2 0x11AD JUMPI PUSH1 0x40 MLOAD PUSH3 0x461BCD PUSH1 0xE5 SHL DUP2 MSTORE PUSH1 0x20 PUSH1 0x4 DUP3 ADD MSTORE PUSH1 0x9 PUSH1 0x24 DUP3 ADD MSTORE PUSH9 0x2737BA1037BBB732B9 PUSH1 0xB9 SHL PUSH1 0x44 DUP3 ADD MSTORE PUSH1 0x64 ADD PUSH2 0x618 JUMP JUMPDEST PUSH1 0x0 JUMPDEST DUP6 DUP2 LT ISZERO PUSH2 0x1953 JUMPI PUSH1 0x40 DUP1 MLOAD PUSH1 0x0 DUP1 DUP3 MSTORE PUSH1 0x20 DUP3 ADD SWAP1 SWAP3 MSTORE SWAP1 DUP1 DUP10 DUP10 DUP6 DUP2 DUP2 LT PUSH2 0x11DC JUMPI PUSH2 0x11DC PUSH2 0x25D9 JUMP JUMPDEST SWAP1 POP PUSH1 0x20 MUL ADD PUSH1 0x20 DUP2 ADD SWAP1 PUSH2 0x11F1 SWAP2 SWAP1 PUSH2 0x2550 JUMP JUMPDEST PUSH1 0x1 PUSH1 0x1 PUSH1 0xA0 SHL SUB AND PUSH1 0x1 PUSH1 0x1 PUSH1 0xA0 SHL SUB AND DUP2 MSTORE PUSH1 0x20 ADD SWAP1 DUP2 MSTORE PUSH1 0x20 ADD PUSH1 0x0 KECCAK256 PUSH1 0x3 ADD SWAP1 DUP1 MLOAD SWAP1 PUSH1 0x20 ADD SWAP1 PUSH2 0x1227 SWAP3 SWAP2 SWAP1 PUSH2 0x220B JUMP JUMPDEST POP PUSH1 0x0 DUP1 PUSH1 0x0 DUP10 DUP10 DUP6 DUP2 DUP2 LT PUSH2 0x123F JUMPI PUSH2 0x123F PUSH2 0x25D9 JUMP JUMPDEST SWAP1 POP PUSH1 0x20 MUL ADD PUSH1 0x20 DUP2 ADD SWAP1 PUSH2 0x1254 SWAP2 SWAP1 PUSH2 0x2550 JUMP JUMPDEST PUSH1 0x1 PUSH1 0x1 PUSH1 0xA0 SHL SUB AND PUSH1 0x1 PUSH1 0x1 PUSH1 0xA0 SHL SUB AND DUP2 MSTORE PUSH1 0x20 ADD SWAP1 DUP2 MSTORE PUSH1 0x20 ADD PUSH1 0x0 KECCAK256 PUSH1 0x4 ADD DUP2 SWAP1 SSTORE POP PUSH1 0x0 JUMPDEST DUP6 DUP6 DUP4 DUP2 DUP2 LT PUSH2 0x1290 JUMPI PUSH2 0x1290 PUSH2 0x25D9 JUMP JUMPDEST SWAP1 POP PUSH1 0x20 MUL DUP2 ADD SWAP1 PUSH2 0x12A2 SWAP2 SWAP1 PUSH2 0x26D7 JUMP JUMPDEST SWAP1 POP DUP2 LT ISZERO PUSH2 0x18AB JUMPI PUSH1 0x0 DUP1 DUP10 DUP10 DUP6 DUP2 DUP2 LT PUSH2 0x12C0 JUMPI PUSH2 0x12C0 PUSH2 0x25D9 JUMP JUMPDEST SWAP1 POP PUSH1 0x20 MUL ADD PUSH1 0x20 DUP2 ADD SWAP1 PUSH2 0x12D5 SWAP2 SWAP1 PUSH2 0x2550 JUMP JUMPDEST PUSH1 0x1 PUSH1 0x1 PUSH1 0xA0 SHL SUB AND PUSH1 0x1 PUSH1 0x1 PUSH1 0xA0 SHL SUB AND DUP2 MSTORE PUSH1 0x20 ADD SWAP1 DUP2 MSTORE PUSH1 0x20 ADD PUSH1 0x0 KECCAK256 PUSH1 0x1 ADD PUSH1 0x0 DUP8 DUP8 DUP6 DUP2 DUP2 LT PUSH2 0x130C JUMPI PUSH2 0x130C PUSH2 0x25D9 JUMP JUMPDEST SWAP1 POP PUSH1 0x20 MUL DUP2 ADD SWAP1 PUSH2 0x131E SWAP2 SWAP1 PUSH2 0x26D7 JUMP JUMPDEST DUP5 DUP2 DUP2 LT PUSH2 0x132E JUMPI PUSH2 0x132E PUSH2 0x25D9 JUMP JUMPDEST SWAP1 POP PUSH1 0x20 MUL ADD PUSH1 0x20 DUP2 ADD SWAP1 PUSH2 0x1343 SWAP2 SWAP1 PUSH2 0x2550 JUMP JUMPDEST PUSH1 0x1 PUSH1 0x1 PUSH1 0xA0 SHL SUB AND PUSH1 0x1 PUSH1 0x1 PUSH1 0xA0 SHL SUB AND DUP2 MSTORE PUSH1 0x20 ADD SWAP1 DUP2 MSTORE PUSH1 0x20 ADD PUSH1 0x0 KECCAK256 SLOAD PUSH1 0x0 DUP1 DUP11 DUP11 DUP7 DUP2 DUP2 LT PUSH2 0x1379 JUMPI PUSH2 0x1379 PUSH2 0x25D9 JUMP JUMPDEST SWAP1 POP PUSH1 0x20 MUL ADD PUSH1 0x20 DUP2 ADD SWAP1 PUSH2 0x138E SWAP2 SWAP1 PUSH2 0x2550 JUMP JUMPDEST PUSH1 0x1 PUSH1 0x1 PUSH1 0xA0 SHL SUB AND PUSH1 0x1 PUSH1 0x1 PUSH1 0xA0 SHL SUB AND DUP2 MSTORE PUSH1 0x20 ADD SWAP1 DUP2 MSTORE PUSH1 0x20 ADD PUSH1 0x0 KECCAK256 PUSH1 0x0 ADD PUSH1 0x0 DUP9 DUP9 DUP7 DUP2 DUP2 LT PUSH2 0x13C5 JUMPI PUSH2 0x13C5 PUSH2 0x25D9 JUMP JUMPDEST SWAP1 POP PUSH1 0x20 MUL DUP2 ADD SWAP1 PUSH2 0x13D7 SWAP2 SWAP1 PUSH2 0x26D7 JUMP JUMPDEST DUP6 DUP2 DUP2 LT PUSH2 0x13E7 JUMPI PUSH2 0x13E7 PUSH2 0x25D9 JUMP JUMPDEST SWAP1 POP PUSH1 0x20 MUL ADD PUSH1 0x20 DUP2 ADD SWAP1 PUSH2 0x13FC SWAP2 SWAP1 PUSH2 0x2550 JUMP JUMPDEST PUSH1 0x1 PUSH1 0x1 PUSH1 0xA0 SHL SUB AND PUSH1 0x1 PUSH1 0x1 PUSH1 0xA0 SHL SUB AND DUP2 MSTORE PUSH1 0x20 ADD SWAP1 DUP2 MSTORE PUSH1 0x20 ADD PUSH1 0x0 KECCAK256 SLOAD PUSH2 0x1427 SWAP2 SWAP1 PUSH2 0x2659 JUMP JUMPDEST PUSH1 0x0 DUP1 DUP11 DUP11 DUP7 DUP2 DUP2 LT PUSH2 0x143C JUMPI PUSH2 0x143C PUSH2 0x25D9 JUMP JUMPDEST SWAP1 POP PUSH1 0x20 MUL ADD PUSH1 0x20 DUP2 ADD SWAP1 PUSH2 0x1451 SWAP2 SWAP1 PUSH2 0x2550 JUMP JUMPDEST PUSH1 0x1 PUSH1 0x1 PUSH1 0xA0 SHL SUB AND PUSH1 0x1 PUSH1 0x1 PUSH1 0xA0 SHL SUB AND DUP2 MSTORE PUSH1 0x20 ADD SWAP1 DUP2 MSTORE PUSH1 0x20 ADD PUSH1 0x0 KECCAK256 PUSH1 0x2 ADD PUSH1 0x0 DUP9 DUP9 DUP7 DUP2 DUP2 LT PUSH2 0x1488 JUMPI PUSH2 0x1488 PUSH2 0x25D9 JUMP JUMPDEST SWAP1 POP PUSH1 0x20 MUL DUP2 ADD SWAP1 PUSH2 0x149A SWAP2 SWAP1 PUSH2 0x26D7 JUMP JUMPDEST DUP6 DUP2 DUP2 LT PUSH2 0x14AA JUMPI PUSH2 0x14AA PUSH2 0x25D9 JUMP JUMPDEST SWAP1 POP PUSH1 0x20 MUL ADD PUSH1 0x20 DUP2 ADD SWAP1 PUSH2 0x14BF SWAP2 SWAP1 PUSH2 0x2550 JUMP JUMPDEST PUSH1 0x1 PUSH1 0x1 PUSH1 0xA0 SHL SUB AND DUP2 MSTORE PUSH1 0x20 DUP2 ADD SWAP2 SWAP1 SWAP2 MSTORE PUSH1 0x40 ADD PUSH1 0x0 KECCAK256 SSTORE DUP4 DUP4 DUP4 DUP2 DUP2 LT PUSH2 0x14EB JUMPI PUSH2 0x14EB PUSH2 0x25D9 JUMP JUMPDEST SWAP1 POP PUSH1 0x20 MUL DUP2 ADD SWAP1 PUSH2 0x14FD SWAP2 SWAP1 PUSH2 0x26D7 JUMP JUMPDEST DUP3 DUP2 DUP2 LT PUSH2 0x150D JUMPI PUSH2 0x150D PUSH2 0x25D9 JUMP JUMPDEST SWAP1 POP PUSH1 0x20 MUL ADD CALLDATALOAD PUSH1 0x0 DUP1 DUP11 DUP11 DUP7 DUP2 DUP2 LT PUSH2 0x1529 JUMPI PUSH2 0x1529 PUSH2 0x25D9 JUMP JUMPDEST SWAP1 POP PUSH1 0x20 MUL ADD PUSH1 0x20 DUP2 ADD SWAP1 PUSH2 0x153E SWAP2 SWAP1 PUSH2 0x2550 JUMP JUMPDEST PUSH1 0x1 PUSH1 0x1 PUSH1 0xA0 SHL SUB AND PUSH1 0x1 PUSH1 0x1 PUSH1 0xA0 SHL SUB AND DUP2 MSTORE PUSH1 0x20 ADD SWAP1 DUP2 MSTORE PUSH1 0x20 ADD PUSH1 0x0 KECCAK256 PUSH1 0x0 ADD PUSH1 0x0 DUP9 DUP9 DUP7 DUP2 DUP2 LT PUSH2 0x1575 JUMPI PUSH2 0x1575 PUSH2 0x25D9 JUMP JUMPDEST SWAP1 POP PUSH1 0x20 MUL DUP2 ADD SWAP1 PUSH2 0x1587 SWAP2 SWAP1 PUSH2 0x26D7 JUMP JUMPDEST DUP6 DUP2 DUP2 LT PUSH2 0x1597 JUMPI PUSH2 0x1597 PUSH2 0x25D9 JUMP JUMPDEST SWAP1 POP PUSH1 0x20 MUL ADD PUSH1 0x20 DUP2 ADD SWAP1 PUSH2 0x15AC SWAP2 SWAP1 PUSH2 0x2550 JUMP JUMPDEST PUSH1 0x1 PUSH1 0x1 PUSH1 0xA0 SHL SUB AND PUSH1 0x1 PUSH1 0x1 PUSH1 0xA0 SHL SUB AND DUP2 MSTORE PUSH1 0x20 ADD SWAP1 DUP2 MSTORE PUSH1 0x20 ADD PUSH1 0x0 KECCAK256 DUP2 SWAP1 SSTORE POP PUSH1 0x0 DUP1 DUP10 DUP10 DUP6 DUP2 DUP2 LT PUSH2 0x15E5 JUMPI PUSH2 0x15E5 PUSH2 0x25D9 JUMP JUMPDEST SWAP1 POP PUSH1 0x20 MUL ADD PUSH1 0x20 DUP2 ADD SWAP1 PUSH2 0x15FA SWAP2 SWAP1 PUSH2 0x2550 JUMP JUMPDEST PUSH1 0x1 PUSH1 0x1 PUSH1 0xA0 SHL SUB AND PUSH1 0x1 PUSH1 0x1 PUSH1 0xA0 SHL SUB AND DUP2 MSTORE PUSH1 0x20 ADD SWAP1 DUP2 MSTORE PUSH1 0x20 ADD PUSH1 0x0 KECCAK256 PUSH1 0x3 ADD DUP7 DUP7 DUP5 DUP2 DUP2 LT PUSH2 0x162F JUMPI PUSH2 0x162F PUSH2 0x25D9 JUMP JUMPDEST SWAP1 POP PUSH1 0x20 MUL DUP2 ADD SWAP1 PUSH2 0x1641 SWAP2 SWAP1 PUSH2 0x26D7 JUMP JUMPDEST DUP4 DUP2 DUP2 LT PUSH2 0x1651 JUMPI PUSH2 0x1651 PUSH2 0x25D9 JUMP JUMPDEST SWAP1 POP PUSH1 0x20 MUL ADD PUSH1 0x20 DUP2 ADD SWAP1 PUSH2 0x1666 SWAP2 SWAP1 PUSH2 0x2550 JUMP JUMPDEST DUP2 SLOAD PUSH1 0x1 DUP2 ADD DUP4 SSTORE PUSH1 0x0 SWAP3 DUP4 MSTORE PUSH1 0x20 DUP4 KECCAK256 ADD DUP1 SLOAD PUSH1 0x1 PUSH1 0x1 PUSH1 0xA0 SHL SUB NOT AND PUSH1 0x1 PUSH1 0x1 PUSH1 0xA0 SHL SUB SWAP3 SWAP1 SWAP3 AND SWAP2 SWAP1 SWAP2 OR SWAP1 SSTORE DUP1 DUP1 DUP11 DUP11 DUP7 DUP2 DUP2 LT PUSH2 0x16AA JUMPI PUSH2 0x16AA PUSH2 0x25D9 JUMP JUMPDEST SWAP1 POP PUSH1 0x20 MUL ADD PUSH1 0x20 DUP2 ADD SWAP1 PUSH2 0x16BF SWAP2 SWAP1 PUSH2 0x2550 JUMP JUMPDEST PUSH1 0x1 PUSH1 0x1 PUSH1 0xA0 SHL SUB AND PUSH1 0x1 PUSH1 0x1 PUSH1 0xA0 SHL SUB AND DUP2 MSTORE PUSH1 0x20 ADD SWAP1 DUP2 MSTORE PUSH1 0x20 ADD PUSH1 0x0 KECCAK256 PUSH1 0x1 ADD PUSH1 0x0 DUP9 DUP9 DUP7 DUP2 DUP2 LT PUSH2 0x16F6 JUMPI PUSH2 0x16F6 PUSH2 0x25D9 JUMP JUMPDEST SWAP1 POP PUSH1 0x20 MUL DUP2 ADD SWAP1 PUSH2 0x1708 SWAP2 SWAP1 PUSH2 0x26D7 JUMP JUMPDEST DUP6 DUP2 DUP2 LT PUSH2 0x1718 JUMPI PUSH2 0x1718 PUSH2 0x25D9 JUMP JUMPDEST SWAP1 POP PUSH1 0x20 MUL ADD PUSH1 0x20 DUP2 ADD SWAP1 PUSH2 0x172D SWAP2 SWAP1 PUSH2 0x2550 JUMP JUMPDEST PUSH1 0x1 PUSH1 0x1 PUSH1 0xA0 SHL SUB AND DUP2 MSTORE PUSH1 0x20 DUP2 ADD SWAP2 SWAP1 SWAP2 MSTORE PUSH1 0x40 ADD PUSH1 0x0 KECCAK256 SSTORE DUP4 DUP4 DUP4 DUP2 DUP2 LT PUSH2 0x1759 JUMPI PUSH2 0x1759 PUSH2 0x25D9 JUMP JUMPDEST SWAP1 POP PUSH1 0x20 MUL DUP2 ADD SWAP1 PUSH2 0x176B SWAP2 SWAP1 PUSH2 0x26D7 JUMP JUMPDEST DUP3 DUP2 DUP2 LT PUSH2 0x177B JUMPI PUSH2 0x177B PUSH2 0x25D9 JUMP JUMPDEST SWAP1 POP PUSH1 0x20 MUL ADD CALLDATALOAD PUSH1 0x0 DUP1 DUP11 DUP11 DUP7 DUP2 DUP2 LT PUSH2 0x1797 JUMPI PUSH2 0x1797 PUSH2 0x25D9 JUMP JUMPDEST SWAP1 POP PUSH1 0x20 MUL ADD PUSH1 0x20 DUP2 ADD SWAP1 PUSH2 0x17AC SWAP2 SWAP1 PUSH2 0x2550 JUMP JUMPDEST PUSH1 0x1 PUSH1 0x1 PUSH1 0xA0 SHL SUB AND PUSH1 0x1 PUSH1 0x1 PUSH1 0xA0 SHL SUB AND DUP2 MSTORE PUSH1 0x20 ADD SWAP1 DUP2 MSTORE PUSH1 0x20 ADD PUSH1 0x0 KECCAK256 PUSH1 0x4 ADD PUSH1 0x0 DUP3 DUP3 SLOAD PUSH2 0x17DE SWAP2 SWAP1 PUSH2 0x26A5 JUMP JUMPDEST SWAP1 SWAP2 SSTORE POP PUSH1 0x1 SWAP1 POP PUSH1 0x0 DUP1 DUP11 DUP11 DUP7 DUP2 DUP2 LT PUSH2 0x17FB JUMPI PUSH2 0x17FB PUSH2 0x25D9 JUMP JUMPDEST SWAP1 POP PUSH1 0x20 MUL ADD PUSH1 0x20 DUP2 ADD SWAP1 PUSH2 0x1810 SWAP2 SWAP1 PUSH2 0x2550 JUMP JUMPDEST PUSH1 0x1 PUSH1 0x1 PUSH1 0xA0 SHL SUB AND DUP2 MSTORE PUSH1 0x20 DUP2 ADD SWAP2 SWAP1 SWAP2 MSTORE PUSH1 0x40 ADD PUSH1 0x0 SWAP1 DUP2 KECCAK256 PUSH1 0x6 ADD DUP1 SLOAD PUSH1 0xFF NOT AND SWAP3 ISZERO ISZERO SWAP3 SWAP1 SWAP3 OR SWAP1 SWAP2 SSTORE DUP1 DUP1 DUP11 DUP11 DUP7 DUP2 DUP2 LT PUSH2 0x1852 JUMPI PUSH2 0x1852 PUSH2 0x25D9 JUMP JUMPDEST SWAP1 POP PUSH1 0x20 MUL ADD PUSH1 0x20 DUP2 ADD SWAP1 PUSH2 0x1867 SWAP2 SWAP1 PUSH2 0x2550 JUMP JUMPDEST PUSH1 0x1 PUSH1 0x1 PUSH1 0xA0 SHL SUB AND DUP2 MSTORE PUSH1 0x20 DUP2 ADD SWAP2 SWAP1 SWAP2 MSTORE PUSH1 0x40 ADD PUSH1 0x0 KECCAK256 PUSH1 0x6 ADD DUP1 SLOAD SWAP2 ISZERO ISZERO PUSH2 0x100 MUL PUSH2 0xFF00 NOT SWAP1 SWAP3 AND SWAP2 SWAP1 SWAP2 OR SWAP1 SSTORE DUP1 PUSH2 0x18A3 DUP2 PUSH2 0x2605 JUMP JUMPDEST SWAP2 POP POP PUSH2 0x127E JUMP JUMPDEST POP PUSH1 0x0 DUP1 DUP9 DUP9 DUP5 DUP2 DUP2 LT PUSH2 0x18C1 JUMPI PUSH2 0x18C1 PUSH2 0x25D9 JUMP JUMPDEST SWAP1 POP PUSH1 0x20 MUL ADD PUSH1 0x20 DUP2 ADD SWAP1 PUSH2 0x18D6 SWAP2 SWAP1 PUSH2 0x2550 JUMP JUMPDEST PUSH1 0x1 PUSH1 0x1 PUSH1 0xA0 SHL SUB AND PUSH1 0x1 PUSH1 0x1 PUSH1 0xA0 SHL SUB AND DUP2 MSTORE PUSH1 0x20 ADD SWAP1 DUP2 MSTORE PUSH1 0x20 ADD PUSH1 0x0 KECCAK256 PUSH1 0x4 ADD SLOAD PUSH1 0x0 DUP1 DUP10 DUP10 DUP6 DUP2 DUP2 LT PUSH2 0x190F JUMPI PUSH2 0x190F PUSH2 0x25D9 JUMP JUMPDEST SWAP1 POP PUSH1 0x20 MUL ADD PUSH1 0x20 DUP2 ADD SWAP1 PUSH2 0x1924 SWAP2 SWAP1 PUSH2 0x2550 JUMP JUMPDEST PUSH1 0x1 PUSH1 0x1 PUSH1 0xA0 SHL SUB AND DUP2 MSTORE PUSH1 0x20 DUP2 ADD SWAP2 SWAP1 SWAP2 MSTORE PUSH1 0x40 ADD PUSH1 0x0 KECCAK256 PUSH1 0x5 ADD SSTORE DUP1 PUSH2 0x194B DUP2 PUSH2 0x2605 JUMP JUMPDEST SWAP2 POP POP PUSH2 0x11B0 JUMP JUMPDEST POP PUSH1 0x1 PUSH1 0x7 PUSH1 0x0 DUP3 DUP3 SLOAD PUSH2 0x1967 SWAP2 SWAP1 PUSH2 0x26A5 JUMP JUMPDEST SWAP1 SWAP2 SSTORE POP POP POP POP POP POP POP POP JUMP JUMPDEST PUSH2 0x199D PUSH1 0x40 MLOAD DUP1 PUSH1 0x40 ADD PUSH1 0x40 MSTORE DUP1 PUSH1 0x7 DUP2 MSTORE PUSH1 0x20 ADD PUSH7 0x37BBB732B91D1 PUSH1 0xCD SHL DUP2 MSTORE POP CALLER PUSH2 0x1BB0 JUMP JUMPDEST PUSH1 0x2 SLOAD PUSH1 0x1 PUSH1 0x1 PUSH1 0xA0 SHL SUB AND CALLER EQ PUSH2 0x19E3 JUMPI PUSH1 0x40 MLOAD PUSH3 0x461BCD PUSH1 0xE5 SHL DUP2 MSTORE PUSH1 0x20 PUSH1 0x4 DUP3 ADD MSTORE PUSH1 0x9 PUSH1 0x24 DUP3 ADD MSTORE PUSH9 0x2737BA1037BBB732B9 PUSH1 0xB9 SHL PUSH1 0x44 DUP3 ADD MSTORE PUSH1 0x64 ADD PUSH2 0x618 JUMP JUMPDEST PUSH1 0x6 DUP1 SLOAD PUSH1 0x1 PUSH1 0x1 PUSH1 0xA0 SHL SUB NOT AND PUSH1 0x1 PUSH1 0x1 PUSH1 0xA0 SHL SUB SWAP3 SWAP1 SWAP3 AND SWAP2 SWAP1 SWAP2 OR SWAP1 SSTORE JUMP JUMPDEST PUSH2 0x1A2E PUSH1 0x40 MLOAD DUP1 PUSH1 0x40 ADD PUSH1 0x40 MSTORE DUP1 PUSH1 0x7 DUP2 MSTORE PUSH1 0x20 ADD PUSH7 0x37BBB732B91D1 PUSH1 0xCD SHL DUP2 MSTORE POP CALLER PUSH2 0x1BB0 JUMP JUMPDEST PUSH1 0x2 SLOAD PUSH1 0x1 PUSH1 0x1 PUSH1 0xA0 SHL SUB AND CALLER EQ PUSH2 0x1A74 JUMPI PUSH1 0x40 MLOAD PUSH3 0x461BCD PUSH1 0xE5 SHL DUP2 MSTORE PUSH1 0x20 PUSH1 0x4 DUP3 ADD MSTORE PUSH1 0x9 PUSH1 0x24 DUP3 ADD MSTORE PUSH9 0x2737BA1037BBB732B9 PUSH1 0xB9 SHL PUSH1 0x44 DUP3 ADD MSTORE PUSH1 0x64 ADD PUSH2 0x618 JUMP JUMPDEST PUSH2 0x1A80 PUSH1 0x3 DUP6 DUP6 PUSH2 0x2270 JUMP JUMPDEST POP PUSH1 0x0 JUMPDEST DUP2 DUP2 LT ISZERO PUSH2 0x1B13 JUMPI DUP3 DUP3 DUP3 DUP2 DUP2 LT PUSH2 0x1A9E JUMPI PUSH2 0x1A9E PUSH2 0x25D9 JUMP JUMPDEST SWAP1 POP PUSH1 0x20 MUL DUP2 ADD SWAP1 PUSH2 0x1AB0 SWAP2 SWAP1 PUSH2 0x2721 JUMP JUMPDEST PUSH1 0x4 PUSH1 0x0 DUP9 DUP9 DUP7 DUP2 DUP2 LT PUSH2 0x1AC6 JUMPI PUSH2 0x1AC6 PUSH2 0x25D9 JUMP JUMPDEST SWAP1 POP PUSH1 0x20 MUL ADD PUSH1 0x20 DUP2 ADD SWAP1 PUSH2 0x1ADB SWAP2 SWAP1 PUSH2 0x2550 JUMP JUMPDEST PUSH1 0x1 PUSH1 0x1 PUSH1 0xA0 SHL SUB AND DUP2 MSTORE PUSH1 0x20 DUP2 ADD SWAP2 SWAP1 SWAP2 MSTORE PUSH1 0x40 ADD PUSH1 0x0 KECCAK256 SWAP2 PUSH2 0x1B00 SWAP2 SWAP1 DUP4 PUSH2 0x27F1 JUMP JUMPDEST POP DUP1 PUSH2 0x1B0B DUP2 PUSH2 0x2605 JUMP JUMPDEST SWAP2 POP POP PUSH2 0x1A84 JUMP JUMPDEST POP POP POP POP POP JUMP JUMPDEST PUSH1 0x3 DUP2 DUP2 SLOAD DUP2 LT PUSH2 0x1B2A JUMPI PUSH1 0x0 DUP1 REVERT JUMPDEST PUSH1 0x0 SWAP2 DUP3 MSTORE PUSH1 0x20 SWAP1 SWAP2 KECCAK256 ADD SLOAD PUSH1 0x1 PUSH1 0x1 PUSH1 0xA0 SHL SUB AND SWAP1 POP DUP2 JUMP JUMPDEST PUSH1 0x1 PUSH1 0x1 PUSH1 0xA0 SHL SUB DUP2 AND PUSH1 0x0 SWAP1 DUP2 MSTORE PUSH1 0x1 PUSH1 0x20 SWAP1 DUP2 MSTORE PUSH1 0x40 SWAP2 DUP3 SWAP1 KECCAK256 DUP1 SLOAD DUP4 MLOAD DUP2 DUP5 MUL DUP2 ADD DUP5 ADD SWAP1 SWAP5 MSTORE DUP1 DUP5 MSTORE PUSH1 0x60 SWAP4 SWAP3 DUP4 ADD DUP3 DUP3 DUP1 ISZERO PUSH2 0x1BA4 JUMPI PUSH1 0x20 MUL DUP3 ADD SWAP2 SWAP1 PUSH1 0x0 MSTORE PUSH1 0x20 PUSH1 0x0 KECCAK256 SWAP1 JUMPDEST DUP2 SLOAD DUP2 MSTORE PUSH1 0x20 ADD SWAP1 PUSH1 0x1 ADD SWAP1 DUP1 DUP4 GT PUSH2 0x1B90 JUMPI JUMPDEST POP POP POP POP POP SWAP1 POP SWAP2 SWAP1 POP JUMP JUMPDEST PUSH2 0x1C0E DUP3 DUP3 PUSH1 0x40 MLOAD PUSH1 0x24 ADD PUSH2 0x1BC6 SWAP3 SWAP2 SWAP1 PUSH2 0x2901 JUMP JUMPDEST PUSH1 0x40 DUP1 MLOAD PUSH1 0x1F NOT DUP2 DUP5 SUB ADD DUP2 MSTORE SWAP2 SWAP1 MSTORE PUSH1 0x20 DUP2 ADD DUP1 MLOAD PUSH1 0x1 PUSH1 0x1 PUSH1 0xE0 SHL SUB AND PUSH32 0x319AF33300000000000000000000000000000000000000000000000000000000 OR SWAP1 MSTORE PUSH2 0x2008 JUMP JUMPDEST POP POP JUMP JUMPDEST PUSH2 0x1C0E DUP3 DUP3 PUSH1 0x40 MLOAD PUSH1 0x24 ADD PUSH2 0x1C28 SWAP3 SWAP2 SWAP1 PUSH2 0x292C JUMP JUMPDEST PUSH1 0x40 DUP1 MLOAD PUSH1 0x1F NOT DUP2 DUP5 SUB ADD DUP2 MSTORE SWAP2 SWAP1 MSTORE PUSH1 0x20 DUP2 ADD DUP1 MLOAD PUSH1 0x1 PUSH1 0x1 PUSH1 0xE0 SHL SUB AND PUSH32 0xC3B5563500000000000000000000000000000000000000000000000000000000 OR SWAP1 MSTORE PUSH2 0x2008 JUMP JUMPDEST PUSH2 0x1C0E DUP3 DUP3 PUSH1 0x40 MLOAD PUSH1 0x24 ADD PUSH2 0x1C86 SWAP3 SWAP2 SWAP1 PUSH2 0x2950 JUMP JUMPDEST PUSH1 0x40 DUP1 MLOAD PUSH1 0x1F NOT DUP2 DUP5 SUB ADD DUP2 MSTORE SWAP2 SWAP1 MSTORE PUSH1 0x20 DUP2 ADD DUP1 MLOAD PUSH1 0x1 PUSH1 0x1 PUSH1 0xE0 SHL SUB AND PUSH32 0xB60E72CC00000000000000000000000000000000000000000000000000000000 OR SWAP1 MSTORE PUSH2 0x2008 JUMP JUMPDEST PUSH1 0x40 DUP1 MLOAD PUSH1 0x20 DUP2 ADD SWAP1 SWAP2 MSTORE PUSH1 0x0 DUP1 DUP3 MSTORE DUP3 SWAP2 SWAP1 JUMPDEST CALLER PUSH1 0x0 SWAP1 DUP2 MSTORE PUSH1 0x20 DUP2 SWAP1 MSTORE PUSH1 0x40 SWAP1 KECCAK256 PUSH1 0x3 ADD SLOAD DUP2 LT ISZERO PUSH2 0x1E4D JUMPI CALLER PUSH1 0x0 SWAP1 DUP2 MSTORE PUSH1 0x20 DUP2 SWAP1 MSTORE PUSH1 0x40 DUP2 KECCAK256 PUSH1 0x3 ADD DUP1 SLOAD DUP5 SWAP3 PUSH1 0x4 SWAP3 SWAP1 SWAP2 DUP6 SWAP1 DUP2 LT PUSH2 0x1D27 JUMPI PUSH2 0x1D27 PUSH2 0x25D9 JUMP JUMPDEST PUSH1 0x0 SWAP2 DUP3 MSTORE PUSH1 0x20 DUP1 DUP4 KECCAK256 SWAP1 SWAP2 ADD SLOAD PUSH1 0x1 PUSH1 0x1 PUSH1 0xA0 SHL SUB AND DUP4 MSTORE DUP3 DUP2 ADD SWAP4 SWAP1 SWAP4 MSTORE PUSH1 0x40 SWAP2 DUP3 ADD DUP2 KECCAK256 CALLER DUP3 MSTORE SWAP3 DUP2 SWAP1 MSTORE SWAP1 DUP2 KECCAK256 PUSH1 0x3 DUP2 ADD DUP1 SLOAD PUSH2 0x1DA5 SWAP4 PUSH1 0x1 SWAP4 SWAP1 SWAP4 ADD SWAP3 SWAP2 SWAP1 DUP8 SWAP1 DUP2 LT PUSH2 0x1D7B JUMPI PUSH2 0x1D7B PUSH2 0x25D9 JUMP JUMPDEST PUSH1 0x0 SWAP2 DUP3 MSTORE PUSH1 0x20 DUP1 DUP4 KECCAK256 SWAP1 SWAP2 ADD SLOAD PUSH1 0x1 PUSH1 0x1 PUSH1 0xA0 SHL SUB AND DUP4 MSTORE DUP3 ADD SWAP3 SWAP1 SWAP3 MSTORE PUSH1 0x40 ADD SWAP1 KECCAK256 SLOAD PUSH2 0x2029 JUMP JUMPDEST CALLER PUSH1 0x0 SWAP1 DUP2 MSTORE PUSH1 0x20 DUP2 SWAP1 MSTORE PUSH1 0x40 SWAP1 KECCAK256 PUSH1 0x3 ADD SLOAD PUSH2 0x1DC4 SWAP1 PUSH1 0x1 SWAP1 PUSH2 0x2659 JUMP JUMPDEST DUP5 LT PUSH2 0x1DDF JUMPI PUSH1 0x40 MLOAD DUP1 PUSH1 0x20 ADD PUSH1 0x40 MSTORE DUP1 PUSH1 0x0 DUP2 MSTORE POP PUSH2 0x1E16 JUMP JUMPDEST PUSH1 0x40 MLOAD DUP1 PUSH1 0x40 ADD PUSH1 0x40 MSTORE DUP1 PUSH1 0x1 DUP2 MSTORE PUSH1 0x20 ADD PUSH32 0x2C00000000000000000000000000000000000000000000000000000000000000 DUP2 MSTORE POP JUMPDEST PUSH1 0x40 MLOAD PUSH1 0x20 ADD PUSH2 0x1E29 SWAP5 SWAP4 SWAP3 SWAP2 SWAP1 PUSH2 0x298E JUMP JUMPDEST PUSH1 0x40 MLOAD PUSH1 0x20 DUP2 DUP4 SUB SUB DUP2 MSTORE SWAP1 PUSH1 0x40 MSTORE SWAP2 POP DUP1 DUP1 PUSH2 0x1E45 SWAP1 PUSH2 0x2605 JUMP JUMPDEST SWAP2 POP POP PUSH2 0x1CE2 JUMP JUMPDEST POP PUSH1 0x0 PUSH2 0x1E5B PUSH1 0x7 SLOAD PUSH2 0x2029 JUMP JUMPDEST PUSH2 0x1E64 TIMESTAMP PUSH2 0x2029 JUMP JUMPDEST CALLER PUSH1 0x0 SWAP1 DUP2 MSTORE PUSH1 0x20 DUP2 SWAP1 MSTORE PUSH1 0x40 SWAP1 KECCAK256 PUSH1 0x5 ADD SLOAD PUSH2 0x1E80 SWAP1 PUSH2 0x2029 JUMP JUMPDEST DUP5 PUSH1 0x40 MLOAD PUSH1 0x20 ADD PUSH2 0x1E94 SWAP5 SWAP4 SWAP3 SWAP2 SWAP1 PUSH2 0x2ADF JUMP JUMPDEST PUSH1 0x40 DUP1 MLOAD PUSH1 0x1F NOT DUP2 DUP5 SUB ADD DUP2 MSTORE DUP3 DUP3 ADD SWAP1 SWAP2 MSTORE PUSH1 0x2 DUP3 MSTORE PUSH32 0x312D000000000000000000000000000000000000000000000000000000000000 PUSH1 0x20 DUP4 ADD MSTORE SWAP2 POP PUSH2 0x1EDC SWAP1 PUSH2 0x20C9 JUMP JUMPDEST PUSH1 0x40 MLOAD PUSH32 0xD204C45E00000000000000000000000000000000000000000000000000000000 DUP2 MSTORE PUSH1 0x0 SWAP1 PUSH1 0x1 PUSH1 0x1 PUSH1 0xA0 SHL SUB DUP6 AND SWAP1 PUSH4 0xD204C45E SWAP1 PUSH2 0x1F26 SWAP1 CALLER SWAP1 DUP7 SWAP1 PUSH1 0x4 ADD PUSH2 0x2CC4 JUMP JUMPDEST PUSH1 0x20 PUSH1 0x40 MLOAD DUP1 DUP4 SUB DUP2 PUSH1 0x0 DUP8 GAS CALL ISZERO DUP1 ISZERO PUSH2 0x1F45 JUMPI RETURNDATASIZE PUSH1 0x0 DUP1 RETURNDATACOPY RETURNDATASIZE PUSH1 0x0 REVERT JUMPDEST POP POP POP POP PUSH1 0x40 MLOAD RETURNDATASIZE PUSH1 0x1F NOT PUSH1 0x1F DUP3 ADD AND DUP3 ADD DUP1 PUSH1 0x40 MSTORE POP DUP2 ADD SWAP1 PUSH2 0x1F69 SWAP2 SWAP1 PUSH2 0x261E JUMP JUMPDEST SWAP1 POP PUSH2 0x1FA9 PUSH1 0x40 MLOAD DUP1 PUSH1 0x40 ADD PUSH1 0x40 MSTORE DUP1 PUSH1 0x2 DUP2 MSTORE PUSH1 0x20 ADD PUSH32 0x322D000000000000000000000000000000000000000000000000000000000000 DUP2 MSTORE POP PUSH2 0x20C9 JUMP JUMPDEST CALLER PUSH1 0x0 SWAP1 DUP2 MSTORE PUSH1 0x1 PUSH1 0x20 DUP2 DUP2 MSTORE PUSH1 0x40 DUP1 DUP5 KECCAK256 DUP1 SLOAD SWAP4 DUP5 ADD DUP2 SSTORE DUP5 MSTORE SWAP3 DUP2 SWAP1 KECCAK256 SWAP1 SWAP2 ADD DUP4 SWAP1 SSTORE DUP2 MLOAD DUP1 DUP4 ADD SWAP1 SWAP3 MSTORE PUSH1 0x2 DUP3 MSTORE PUSH32 0x332D000000000000000000000000000000000000000000000000000000000000 SWAP1 DUP3 ADD MSTORE PUSH2 0x1B13 SWAP1 PUSH2 0x20C9 JUMP JUMPDEST DUP1 MLOAD PUSH11 0x636F6E736F6C652E6C6F67 PUSH1 0x20 DUP4 ADD PUSH1 0x0 DUP1 DUP5 DUP4 DUP6 GAS STATICCALL POP POP POP POP POP JUMP JUMPDEST PUSH1 0x60 PUSH1 0x0 PUSH2 0x2036 DUP4 PUSH2 0x2128 JUMP JUMPDEST PUSH1 0x1 ADD SWAP1 POP PUSH1 0x0 DUP2 PUSH8 0xFFFFFFFFFFFFFFFF DUP2 GT ISZERO PUSH2 0x2056 JUMPI PUSH2 0x2056 PUSH2 0x25C3 JUMP JUMPDEST PUSH1 0x40 MLOAD SWAP1 DUP1 DUP3 MSTORE DUP1 PUSH1 0x1F ADD PUSH1 0x1F NOT AND PUSH1 0x20 ADD DUP3 ADD PUSH1 0x40 MSTORE DUP1 ISZERO PUSH2 0x2080 JUMPI PUSH1 0x20 DUP3 ADD DUP2 DUP1 CALLDATASIZE DUP4 CALLDATACOPY ADD SWAP1 POP JUMPDEST POP SWAP1 POP DUP2 DUP2 ADD PUSH1 0x20 ADD JUMPDEST PUSH1 0x0 NOT ADD PUSH32 0x3031323334353637383961626364656600000000000000000000000000000000 PUSH1 0xA DUP7 MOD BYTE DUP2 MSTORE8 PUSH1 0xA DUP6 DIV SWAP5 POP DUP5 PUSH2 0x208A JUMPI POP SWAP4 SWAP3 POP POP POP JUMP JUMPDEST PUSH2 0x2125 DUP2 PUSH1 0x40 MLOAD PUSH1 0x24 ADD PUSH2 0x20DD SWAP2 SWAP1 PUSH2 0x2CEE JUMP JUMPDEST PUSH1 0x40 DUP1 MLOAD PUSH1 0x1F NOT DUP2 DUP5 SUB ADD DUP2 MSTORE SWAP2 SWAP1 MSTORE PUSH1 0x20 DUP2 ADD DUP1 MLOAD PUSH1 0x1 PUSH1 0x1 PUSH1 0xE0 SHL SUB AND PUSH32 0x41304FAC00000000000000000000000000000000000000000000000000000000 OR SWAP1 MSTORE PUSH2 0x2008 JUMP JUMPDEST POP JUMP JUMPDEST PUSH1 0x0 DUP1 PUSH27 0x184F03E93FF9F4DAA797ED6E38ED64BF6A1F010000000000000000 DUP4 LT PUSH2 0x2171 JUMPI PUSH27 0x184F03E93FF9F4DAA797ED6E38ED64BF6A1F010000000000000000 DUP4 DIV SWAP3 POP PUSH1 0x40 ADD JUMPDEST PUSH14 0x4EE2D6D415B85ACEF8100000000 DUP4 LT PUSH2 0x219D JUMPI PUSH14 0x4EE2D6D415B85ACEF8100000000 DUP4 DIV SWAP3 POP PUSH1 0x20 ADD JUMPDEST PUSH7 0x2386F26FC10000 DUP4 LT PUSH2 0x21BB JUMPI PUSH7 0x2386F26FC10000 DUP4 DIV SWAP3 POP PUSH1 0x10 ADD JUMPDEST PUSH4 0x5F5E100 DUP4 LT PUSH2 0x21D3 JUMPI PUSH4 0x5F5E100 DUP4 DIV SWAP3 POP PUSH1 0x8 ADD JUMPDEST PUSH2 0x2710 DUP4 LT PUSH2 0x21E7 JUMPI PUSH2 0x2710 DUP4 DIV SWAP3 POP PUSH1 0x4 ADD JUMPDEST PUSH1 0x64 DUP4 LT PUSH2 0x21F9 JUMPI PUSH1 0x64 DUP4 DIV SWAP3 POP PUSH1 0x2 ADD JUMPDEST PUSH1 0xA DUP4 LT PUSH2 0x2205 JUMPI PUSH1 0x1 ADD JUMPDEST SWAP3 SWAP2 POP POP JUMP JUMPDEST DUP3 DUP1 SLOAD DUP3 DUP3 SSTORE SWAP1 PUSH1 0x0 MSTORE PUSH1 0x20 PUSH1 0x0 KECCAK256 SWAP1 DUP2 ADD SWAP3 DUP3 ISZERO PUSH2 0x2260 JUMPI SWAP2 PUSH1 0x20 MUL DUP3 ADD JUMPDEST DUP3 DUP2 GT ISZERO PUSH2 0x2260 JUMPI DUP3 MLOAD DUP3 SLOAD PUSH1 0x1 PUSH1 0x1 PUSH1 0xA0 SHL SUB NOT AND PUSH1 0x1 PUSH1 0x1 PUSH1 0xA0 SHL SUB SWAP1 SWAP2 AND OR DUP3 SSTORE PUSH1 0x20 SWAP1 SWAP3 ADD SWAP2 PUSH1 0x1 SWAP1 SWAP2 ADD SWAP1 PUSH2 0x222B JUMP JUMPDEST POP PUSH2 0x226C SWAP3 SWAP2 POP PUSH2 0x22C3 JUMP JUMPDEST POP SWAP1 JUMP JUMPDEST DUP3 DUP1 SLOAD DUP3 DUP3 SSTORE SWAP1 PUSH1 0x0 MSTORE PUSH1 0x20 PUSH1 0x0 KECCAK256 SWAP1 DUP2 ADD SWAP3 DUP3 ISZERO PUSH2 0x2260 JUMPI SWAP2 PUSH1 0x20 MUL DUP3 ADD JUMPDEST DUP3 DUP2 GT ISZERO PUSH2 0x2260 JUMPI DUP2 SLOAD PUSH1 0x1 PUSH1 0x1 PUSH1 0xA0 SHL SUB NOT AND PUSH1 0x1 PUSH1 0x1 PUSH1 0xA0 SHL SUB DUP5 CALLDATALOAD AND OR DUP3 SSTORE PUSH1 0x20 SWAP1 SWAP3 ADD SWAP2 PUSH1 0x1 SWAP1 SWAP2 ADD SWAP1 PUSH2 0x2290 JUMP JUMPDEST JUMPDEST DUP1 DUP3 GT ISZERO PUSH2 0x226C JUMPI PUSH1 0x0 DUP2 SSTORE PUSH1 0x1 ADD PUSH2 0x22C4 JUMP JUMPDEST PUSH1 0x0 DUP1 DUP4 PUSH1 0x1F DUP5 ADD SLT PUSH2 0x22EA JUMPI PUSH1 0x0 DUP1 REVERT JUMPDEST POP DUP2 CALLDATALOAD PUSH8 0xFFFFFFFFFFFFFFFF DUP2 GT ISZERO PUSH2 0x2302 JUMPI PUSH1 0x0 DUP1 REVERT JUMPDEST PUSH1 0x20 DUP4 ADD SWAP2 POP DUP4 PUSH1 0x20 DUP3 PUSH1 0x5 SHL DUP6 ADD ADD GT ISZERO PUSH2 0x231D JUMPI PUSH1 0x0 DUP1 REVERT JUMPDEST SWAP3 POP SWAP3 SWAP1 POP JUMP JUMPDEST PUSH1 0x0 DUP1 PUSH1 0x0 DUP1 PUSH1 0x40 DUP6 DUP8 SUB SLT ISZERO PUSH2 0x233A JUMPI PUSH1 0x0 DUP1 REVERT JUMPDEST DUP5 CALLDATALOAD PUSH8 0xFFFFFFFFFFFFFFFF DUP1 DUP3 GT ISZERO PUSH2 0x2352 JUMPI PUSH1 0x0 DUP1 REVERT JUMPDEST PUSH2 0x235E DUP9 DUP4 DUP10 ADD PUSH2 0x22D8 JUMP JUMPDEST SWAP1 SWAP7 POP SWAP5 POP PUSH1 0x20 DUP8 ADD CALLDATALOAD SWAP2 POP DUP1 DUP3 GT ISZERO PUSH2 0x2377 JUMPI PUSH1 0x0 DUP1 REVERT JUMPDEST POP PUSH2 0x2384 DUP8 DUP3 DUP9 ADD PUSH2 0x22D8 JUMP JUMPDEST SWAP6 SWAP9 SWAP5 SWAP8 POP SWAP6 POP POP POP POP JUMP JUMPDEST PUSH1 0x0 PUSH1 0x20 DUP1 DUP4 ADD DUP2 DUP5 MSTORE DUP1 DUP6 MLOAD DUP1 DUP4 MSTORE PUSH1 0x40 DUP7 ADD SWAP2 POP PUSH1 0x40 DUP2 PUSH1 0x5 SHL DUP8 ADD ADD SWAP3 POP DUP4 DUP8 ADD PUSH1 0x0 DUP1 JUMPDEST DUP4 DUP2 LT ISZERO PUSH2 0x240C JUMPI DUP9 DUP7 SUB PUSH1 0x3F NOT ADD DUP6 MSTORE DUP3 MLOAD DUP1 MLOAD DUP1 DUP9 MSTORE SWAP1 DUP9 ADD SWAP1 DUP9 DUP9 ADD SWAP1 DUP5 JUMPDEST DUP2 DUP2 LT ISZERO PUSH2 0x23F6 JUMPI DUP4 MLOAD DUP4 MSTORE SWAP3 DUP11 ADD SWAP3 SWAP2 DUP11 ADD SWAP2 PUSH1 0x1 ADD PUSH2 0x23DA JUMP JUMPDEST POP SWAP1 SWAP8 POP POP POP SWAP4 DUP7 ADD SWAP4 SWAP2 DUP7 ADD SWAP2 PUSH1 0x1 ADD PUSH2 0x23B8 JUMP JUMPDEST POP SWAP4 SWAP9 SWAP8 POP POP POP POP POP POP POP POP JUMP JUMPDEST PUSH1 0x20 DUP1 DUP3 MSTORE DUP3 MLOAD DUP3 DUP3 ADD DUP2 SWAP1 MSTORE PUSH1 0x0 SWAP2 SWAP1 DUP5 DUP3 ADD SWAP1 PUSH1 0x40 DUP6 ADD SWAP1 DUP5 JUMPDEST DUP2 DUP2 LT ISZERO PUSH2 0x245B JUMPI DUP4 MLOAD PUSH1 0x1 PUSH1 0x1 PUSH1 0xA0 SHL SUB AND DUP4 MSTORE SWAP3 DUP5 ADD SWAP3 SWAP2 DUP5 ADD SWAP2 PUSH1 0x1 ADD PUSH2 0x2436 JUMP JUMPDEST POP SWAP1 SWAP7 SWAP6 POP POP POP POP POP POP JUMP JUMPDEST DUP1 CALLDATALOAD PUSH1 0x1 PUSH1 0x1 PUSH1 0xA0 SHL SUB DUP2 AND DUP2 EQ PUSH2 0x247E JUMPI PUSH1 0x0 DUP1 REVERT JUMPDEST SWAP2 SWAP1 POP JUMP JUMPDEST PUSH1 0x0 DUP1 PUSH1 0x40 DUP4 DUP6 SUB SLT ISZERO PUSH2 0x2496 JUMPI PUSH1 0x0 DUP1 REVERT JUMPDEST PUSH2 0x249F DUP4 PUSH2 0x2467 JUMP JUMPDEST SWAP2 POP PUSH2 0x24AD PUSH1 0x20 DUP5 ADD PUSH2 0x2467 JUMP JUMPDEST SWAP1 POP SWAP3 POP SWAP3 SWAP1 POP JUMP JUMPDEST PUSH1 0x0 DUP1 PUSH1 0x0 DUP1 PUSH1 0x0 DUP1 PUSH1 0x60 DUP8 DUP10 SUB SLT ISZERO PUSH2 0x24CF JUMPI PUSH1 0x0 DUP1 REVERT JUMPDEST DUP7 CALLDATALOAD PUSH8 0xFFFFFFFFFFFFFFFF DUP1 DUP3 GT ISZERO PUSH2 0x24E7 JUMPI PUSH1 0x0 DUP1 REVERT JUMPDEST PUSH2 0x24F3 DUP11 DUP4 DUP12 ADD PUSH2 0x22D8 JUMP JUMPDEST SWAP1 SWAP9 POP SWAP7 POP PUSH1 0x20 DUP10 ADD CALLDATALOAD SWAP2 POP DUP1 DUP3 GT ISZERO PUSH2 0x250C JUMPI PUSH1 0x0 DUP1 REVERT JUMPDEST PUSH2 0x2518 DUP11 DUP4 DUP12 ADD PUSH2 0x22D8 JUMP JUMPDEST SWAP1 SWAP7 POP SWAP5 POP PUSH1 0x40 DUP10 ADD CALLDATALOAD SWAP2 POP DUP1 DUP3 GT ISZERO PUSH2 0x2531 JUMPI PUSH1 0x0 DUP1 REVERT JUMPDEST POP PUSH2 0x253E DUP10 DUP3 DUP11 ADD PUSH2 0x22D8 JUMP JUMPDEST SWAP8 SWAP11 SWAP7 SWAP10 POP SWAP5 SWAP8 POP SWAP3 SWAP6 SWAP4 SWAP5 SWAP3 POP POP POP JUMP JUMPDEST PUSH1 0x0 PUSH1 0x20 DUP3 DUP5 SUB SLT ISZERO PUSH2 0x2562 JUMPI PUSH1 0x0 DUP1 REVERT JUMPDEST PUSH2 0x256B DUP3 PUSH2 0x2467 JUMP JUMPDEST SWAP4 SWAP3 POP POP POP JUMP JUMPDEST PUSH1 0x0 PUSH1 0x20 DUP3 DUP5 SUB SLT ISZERO PUSH2 0x2584 JUMPI PUSH1 0x0 DUP1 REVERT JUMPDEST POP CALLDATALOAD SWAP2 SWAP1 POP JUMP JUMPDEST PUSH1 0x20 DUP1 DUP3 MSTORE DUP3 MLOAD DUP3 DUP3 ADD DUP2 SWAP1 MSTORE PUSH1 0x0 SWAP2 SWAP1 DUP5 DUP3 ADD SWAP1 PUSH1 0x40 DUP6 ADD SWAP1 DUP5 JUMPDEST DUP2 DUP2 LT ISZERO PUSH2 0x245B JUMPI DUP4 MLOAD DUP4 MSTORE SWAP3 DUP5 ADD SWAP3 SWAP2 DUP5 ADD SWAP2 PUSH1 0x1 ADD PUSH2 0x25A7 JUMP JUMPDEST PUSH4 0x4E487B71 PUSH1 0xE0 SHL PUSH1 0x0 MSTORE PUSH1 0x41 PUSH1 0x4 MSTORE PUSH1 0x24 PUSH1 0x0 REVERT JUMPDEST PUSH4 0x4E487B71 PUSH1 0xE0 SHL PUSH1 0x0 MSTORE PUSH1 0x32 PUSH1 0x4 MSTORE PUSH1 0x24 PUSH1 0x0 REVERT JUMPDEST PUSH4 0x4E487B71 PUSH1 0xE0 SHL PUSH1 0x0 MSTORE PUSH1 0x11 PUSH1 0x4 MSTORE PUSH1 0x24 PUSH1 0x0 REVERT JUMPDEST PUSH1 0x0 PUSH1 0x1 DUP3 ADD PUSH2 0x2617 JUMPI PUSH2 0x2617 PUSH2 0x25EF JUMP JUMPDEST POP PUSH1 0x1 ADD SWAP1 JUMP JUMPDEST PUSH1 0x0 PUSH1 0x20 DUP3 DUP5 SUB SLT ISZERO PUSH2 0x2630 JUMPI PUSH1 0x0 DUP1 REVERT JUMPDEST POP MLOAD SWAP2 SWAP1 POP JUMP JUMPDEST PUSH1 0x0 DUP3 PUSH2 0x2654 JUMPI PUSH4 0x4E487B71 PUSH1 0xE0 SHL PUSH1 0x0 MSTORE PUSH1 0x12 PUSH1 0x4 MSTORE PUSH1 0x24 PUSH1 0x0 REVERT JUMPDEST POP DIV SWAP1 JUMP JUMPDEST DUP2 DUP2 SUB DUP2 DUP2 GT ISZERO PUSH2 0x2205 JUMPI PUSH2 0x2205 PUSH2 0x25EF JUMP JUMPDEST DUP1 DUP3 MUL DUP2 ISZERO DUP3 DUP3 DIV DUP5 EQ OR PUSH2 0x2205 JUMPI PUSH2 0x2205 PUSH2 0x25EF JUMP JUMPDEST PUSH1 0x0 PUSH1 0x20 DUP3 DUP5 SUB SLT ISZERO PUSH2 0x2695 JUMPI PUSH1 0x0 DUP1 REVERT JUMPDEST DUP2 MLOAD DUP1 ISZERO ISZERO DUP2 EQ PUSH2 0x256B JUMPI PUSH1 0x0 DUP1 REVERT JUMPDEST DUP1 DUP3 ADD DUP1 DUP3 GT ISZERO PUSH2 0x2205 JUMPI PUSH2 0x2205 PUSH2 0x25EF JUMP JUMPDEST PUSH1 0x0 PUSH1 0xFF DUP3 AND PUSH1 0xFF DUP2 SUB PUSH2 0x26CE JUMPI PUSH2 0x26CE PUSH2 0x25EF JUMP JUMPDEST PUSH1 0x1 ADD SWAP3 SWAP2 POP POP JUMP JUMPDEST PUSH1 0x0 DUP1 DUP4 CALLDATALOAD PUSH1 0x1E NOT DUP5 CALLDATASIZE SUB ADD DUP2 SLT PUSH2 0x26EE JUMPI PUSH1 0x0 DUP1 REVERT JUMPDEST DUP4 ADD DUP1 CALLDATALOAD SWAP2 POP PUSH8 0xFFFFFFFFFFFFFFFF DUP3 GT ISZERO PUSH2 0x2709 JUMPI PUSH1 0x0 DUP1 REVERT JUMPDEST PUSH1 0x20 ADD SWAP2 POP PUSH1 0x5 DUP2 SWAP1 SHL CALLDATASIZE SUB DUP3 SGT ISZERO PUSH2 0x231D JUMPI PUSH1 0x0 DUP1 REVERT JUMPDEST PUSH1 0x0 DUP1 DUP4 CALLDATALOAD PUSH1 0x1E NOT DUP5 CALLDATASIZE SUB ADD DUP2 SLT PUSH2 0x2738 JUMPI PUSH1 0x0 DUP1 REVERT JUMPDEST DUP4 ADD DUP1 CALLDATALOAD SWAP2 POP PUSH8 0xFFFFFFFFFFFFFFFF DUP3 GT ISZERO PUSH2 0x2753 JUMPI PUSH1 0x0 DUP1 REVERT JUMPDEST PUSH1 0x20 ADD SWAP2 POP CALLDATASIZE DUP2 SWAP1 SUB DUP3 SGT ISZERO PUSH2 0x231D JUMPI PUSH1 0x0 DUP1 REVERT JUMPDEST PUSH1 0x1 DUP2 DUP2 SHR SWAP1 DUP3 AND DUP1 PUSH2 0x277C JUMPI PUSH1 0x7F DUP3 AND SWAP2 POP JUMPDEST PUSH1 0x20 DUP3 LT DUP2 SUB PUSH2 0x279C JUMPI PUSH4 0x4E487B71 PUSH1 0xE0 SHL PUSH1 0x0 MSTORE PUSH1 0x22 PUSH1 0x4 MSTORE PUSH1 0x24 PUSH1 0x0 REVERT JUMPDEST POP SWAP2 SWAP1 POP JUMP JUMPDEST PUSH1 0x1F DUP3 GT ISZERO PUSH2 0x27EC JUMPI PUSH1 0x0 DUP2 DUP2 MSTORE PUSH1 0x20 DUP2 KECCAK256 PUSH1 0x1F DUP6 ADD PUSH1 0x5 SHR DUP2 ADD PUSH1 0x20 DUP7 LT ISZERO PUSH2 0x27C9 JUMPI POP DUP1 JUMPDEST PUSH1 0x1F DUP6 ADD PUSH1 0x5 SHR DUP3 ADD SWAP2 POP JUMPDEST DUP2 DUP2 LT ISZERO PUSH2 0x27E8 JUMPI DUP3 DUP2 SSTORE PUSH1 0x1 ADD PUSH2 0x27D5 JUMP JUMPDEST POP POP POP JUMPDEST POP POP POP JUMP JUMPDEST PUSH8 0xFFFFFFFFFFFFFFFF DUP4 GT ISZERO PUSH2 0x2809 JUMPI PUSH2 0x2809 PUSH2 0x25C3 JUMP JUMPDEST PUSH2 0x281D DUP4 PUSH2 0x2817 DUP4 SLOAD PUSH2 0x2768 JUMP JUMPDEST DUP4 PUSH2 0x27A2 JUMP JUMPDEST PUSH1 0x0 PUSH1 0x1F DUP5 GT PUSH1 0x1 DUP2 EQ PUSH2 0x2851 JUMPI PUSH1 0x0 DUP6 ISZERO PUSH2 0x2839 JUMPI POP DUP4 DUP3 ADD CALLDATALOAD JUMPDEST PUSH1 0x0 NOT PUSH1 0x3 DUP8 SWAP1 SHL SHR NOT AND PUSH1 0x1 DUP7 SWAP1 SHL OR DUP4 SSTORE PUSH2 0x1B13 JUMP JUMPDEST PUSH1 0x0 DUP4 DUP2 MSTORE PUSH1 0x20 SWAP1 KECCAK256 PUSH1 0x1F NOT DUP7 AND SWAP1 DUP4 JUMPDEST DUP3 DUP2 LT ISZERO PUSH2 0x2882 JUMPI DUP7 DUP6 ADD CALLDATALOAD DUP3 SSTORE PUSH1 0x20 SWAP5 DUP6 ADD SWAP5 PUSH1 0x1 SWAP1 SWAP3 ADD SWAP2 ADD PUSH2 0x2862 JUMP JUMPDEST POP DUP7 DUP3 LT ISZERO PUSH2 0x289F JUMPI PUSH1 0x0 NOT PUSH1 0xF8 DUP9 PUSH1 0x3 SHL AND SHR NOT DUP5 DUP8 ADD CALLDATALOAD AND DUP2 SSTORE JUMPDEST POP POP PUSH1 0x1 DUP6 PUSH1 0x1 SHL ADD DUP4 SSTORE POP POP POP POP POP JUMP JUMPDEST PUSH1 0x0 JUMPDEST DUP4 DUP2 LT ISZERO PUSH2 0x28CC JUMPI DUP2 DUP2 ADD MLOAD DUP4 DUP3 ADD MSTORE PUSH1 0x20 ADD PUSH2 0x28B4 JUMP JUMPDEST POP POP PUSH1 0x0 SWAP2 ADD MSTORE JUMP JUMPDEST PUSH1 0x0 DUP2 MLOAD DUP1 DUP5 MSTORE PUSH2 0x28ED DUP2 PUSH1 0x20 DUP7 ADD PUSH1 0x20 DUP7 ADD PUSH2 0x28B1 JUMP JUMPDEST PUSH1 0x1F ADD PUSH1 0x1F NOT AND SWAP3 SWAP1 SWAP3 ADD PUSH1 0x20 ADD SWAP3 SWAP2 POP POP JUMP JUMPDEST PUSH1 0x40 DUP2 MSTORE PUSH1 0x0 PUSH2 0x2914 PUSH1 0x40 DUP4 ADD DUP6 PUSH2 0x28D5 JUMP JUMPDEST SWAP1 POP PUSH1 0x1 PUSH1 0x1 PUSH1 0xA0 SHL SUB DUP4 AND PUSH1 0x20 DUP4 ADD MSTORE SWAP4 SWAP3 POP POP POP JUMP JUMPDEST PUSH1 0x40 DUP2 MSTORE PUSH1 0x0 PUSH2 0x293F PUSH1 0x40 DUP4 ADD DUP6 PUSH2 0x28D5 JUMP JUMPDEST SWAP1 POP DUP3 ISZERO ISZERO PUSH1 0x20 DUP4 ADD MSTORE SWAP4 SWAP3 POP POP POP JUMP JUMPDEST PUSH1 0x40 DUP2 MSTORE PUSH1 0x0 PUSH2 0x2963 PUSH1 0x40 DUP4 ADD DUP6 PUSH2 0x28D5 JUMP JUMPDEST SWAP1 POP DUP3 PUSH1 0x20 DUP4 ADD MSTORE SWAP4 SWAP3 POP POP POP JUMP JUMPDEST PUSH1 0x0 DUP2 MLOAD PUSH2 0x2984 DUP2 DUP6 PUSH1 0x20 DUP7 ADD PUSH2 0x28B1 JUMP JUMPDEST SWAP3 SWAP1 SWAP3 ADD SWAP3 SWAP2 POP POP JUMP JUMPDEST PUSH1 0x0 DUP6 MLOAD PUSH1 0x20 PUSH2 0x29A1 DUP3 DUP6 DUP4 DUP12 ADD PUSH2 0x28B1 JUMP JUMPDEST DUP2 DUP5 ADD SWAP2 POP PUSH32 0x7B227461785F6E616D65223A2200000000000000000000000000000000000000 DUP3 MSTORE PUSH1 0xD PUSH1 0x0 DUP9 SLOAD PUSH2 0x29D8 DUP2 PUSH2 0x2768 JUMP JUMPDEST PUSH1 0x1 DUP3 DUP2 AND DUP1 ISZERO PUSH2 0x29F0 JUMPI PUSH1 0x1 DUP2 EQ PUSH2 0x2A09 JUMPI PUSH2 0x2A39 JUMP JUMPDEST PUSH1 0xFF NOT DUP5 AND DUP9 DUP8 ADD MSTORE DUP3 ISZERO ISZERO DUP4 MUL DUP9 ADD DUP7 ADD SWAP5 POP PUSH2 0x2A39 JUMP JUMPDEST DUP13 PUSH1 0x0 MSTORE DUP7 PUSH1 0x0 KECCAK256 PUSH1 0x0 JUMPDEST DUP5 DUP2 LT ISZERO PUSH2 0x2A2F JUMPI DUP2 SLOAD DUP11 DUP3 ADD DUP10 ADD MSTORE SWAP1 DUP4 ADD SWAP1 DUP9 ADD PUSH2 0x2A14 JUMP JUMPDEST POP POP DUP6 DUP4 DUP10 ADD ADD SWAP5 POP JUMPDEST POP POP POP POP PUSH2 0x2A66 DUP2 PUSH32 0x222C000000000000000000000000000000000000000000000000000000000000 SWAP1 MSTORE JUMP JUMPDEST PUSH32 0x2276616C7565223A220000000000000000000000000000000000000000000000 PUSH1 0x2 DUP3 ADD MSTORE PUSH2 0x2A99 PUSH1 0xB DUP3 ADD DUP10 PUSH2 0x2972 JUMP JUMPDEST SWAP4 POP POP POP POP PUSH2 0x2AC7 DUP2 PUSH32 0x227D000000000000000000000000000000000000000000000000000000000000 SWAP1 MSTORE JUMP JUMPDEST PUSH2 0x2AD4 PUSH1 0x2 DUP3 ADD DUP6 PUSH2 0x2972 JUMP JUMPDEST SWAP8 SWAP7 POP POP POP POP POP POP POP JUMP JUMPDEST PUSH32 0x7B226E616D65223A22544158204E4654222C2020202020202020226465736372 DUP2 MSTORE PUSH32 0x697074696F6E223A2250726F6F66206F66207061796D656E74206F6620746178 PUSH1 0x20 DUP3 ADD MSTORE PUSH32 0x6573202D20230000000000000000000000000000000000000000000000000000 PUSH1 0x40 DUP3 ADD MSTORE PUSH1 0x0 DUP6 MLOAD PUSH2 0x2B63 DUP2 PUSH1 0x46 DUP6 ADD PUSH1 0x20 DUP11 ADD PUSH2 0x28B1 JUMP JUMPDEST PUSH32 0x222C2020202020202020226174726962757465223A5B7B2274726169745F7479 PUSH1 0x46 SWAP2 DUP5 ADD SWAP2 DUP3 ADD MSTORE PUSH32 0x7065223A2244617465206F66207061796D656E74222C2276616C7565223A2200 PUSH1 0x66 DUP3 ADD MSTORE DUP6 MLOAD PUSH2 0x2BC6 DUP2 PUSH1 0x85 DUP5 ADD PUSH1 0x20 DUP11 ADD PUSH2 0x28B1 JUMP JUMPDEST PUSH32 0x227D2C20202020202020207B2274726169745F74797065223A22416D6F756E74 PUSH1 0x85 SWAP3 SWAP1 SWAP2 ADD SWAP2 DUP3 ADD MSTORE PUSH32 0x206F6620546178222C2276616C7565223A220000000000000000000000000000 PUSH1 0xA5 DUP3 ADD MSTORE DUP5 MLOAD PUSH2 0x2C2A DUP2 PUSH1 0xB7 DUP5 ADD PUSH1 0x20 DUP10 ADD PUSH2 0x28B1 JUMP JUMPDEST PUSH2 0x2C8B PUSH2 0x2C85 PUSH1 0xB7 DUP4 DUP6 ADD ADD PUSH32 0x227D2C20202020202020207B2274726169745F74797065223A224C697374206F DUP2 MSTORE PUSH32 0x6620546178222C2276616C7565223A5B00000000000000000000000000000000 PUSH1 0x20 DUP3 ADD MSTORE PUSH1 0x30 ADD SWAP1 JUMP JUMPDEST DUP7 PUSH2 0x2972 JUMP JUMPDEST SWAP2 POP POP PUSH2 0x2CB7 DUP2 PUSH32 0x5D7D5D7D00000000000000000000000000000000000000000000000000000000 SWAP1 MSTORE JUMP JUMPDEST PUSH1 0x4 ADD SWAP7 SWAP6 POP POP POP POP POP POP JUMP JUMPDEST PUSH1 0x1 PUSH1 0x1 PUSH1 0xA0 SHL SUB DUP4 AND DUP2 MSTORE PUSH1 0x40 PUSH1 0x20 DUP3 ADD MSTORE PUSH1 0x0 PUSH2 0x2CE6 PUSH1 0x40 DUP4 ADD DUP5 PUSH2 0x28D5 JUMP JUMPDEST SWAP5 SWAP4 POP POP POP POP JUMP JUMPDEST PUSH1 0x20 DUP2 MSTORE PUSH1 0x0 PUSH2 0x256B PUSH1 0x20 DUP4 ADD DUP5 PUSH2 0x28D5 JUMP INVALID PUSH21 0x61787061796572735B5F616464724269736E65736D PUSH2 0x6E5D 0x2E PUSH21 0x617842616C616E63653A20A2646970667358221220 0xC4 GASLIMIT PUSH17 0x7BE2A77E0C49BEFCEAA91F5DD4400F508C JUMPI PUSH18 0xEE168AD040AB12BD88B064736F6C63430008 SLT STOP CALLER "},"methodIdentifiers":{"listTax(uint256)":"a1b38c9a","owner()":"8da5cb5b","payTax(address,address)":"1905e2f9","readListTax()":"1689132a","readNFTTaxpayer(address)":"cc4c620c","readTaxPaid(address[],address[])":"12a39915","readTaxes(address[],address[])":"13410189","setAddrNFT(address)":"33b7ac42","taxDataDownload(address[],address[][],uint256[][])":"21085bb5","taxpayers(address)":"b957bad4","token()":"fc0c546a","uploadListTax(address[],string[])":"96c711f6"}}}}}