{
  "_format": "hh-sol-artifact-1",
  "contractName": "SingleTaxContract",
  "sourceName": "contracts/SingleTaxContract.sol",
  "abi": [
    {
      "inputs": [],
      "stateMutability": "nonpayable",
      "type": "constructor"
    },
    {
      "inputs": [
        {
          "internalType": "uint256",
          "name": "",
          "type": "uint256"
        }
      ],
      "name": "listTax",
      "outputs": [
        {
          "internalType": "address",
          "name": "",
          "type": "address"
        }
      ],
      "stateMutability": "view",
      "type": "function"
    },
    {
      "inputs": [],
      "name": "owner",
      "outputs": [
        {
          "internalType": "address",
          "name": "",
          "type": "address"
        }
      ],
      "stateMutability": "view",
      "type": "function"
    },
    {
      "inputs": [
        {
          "internalType": "address",
          "name": "_addrBisnesman",
          "type": "address"
        },
        {
          "internalType": "address",
          "name": "_token",
          "type": "address"
        }
      ],
      "name": "payTax",
      "outputs": [],
      "stateMutability": "nonpayable",
      "type": "function"
    },
    {
      "inputs": [],
      "name": "readListTax",
      "outputs": [
        {
          "internalType": "address[]",
          "name": "",
          "type": "address[]"
        }
      ],
      "stateMutability": "view",
      "type": "function"
    },
    {
      "inputs": [
        {
          "internalType": "address",
          "name": "_taxpayer",
          "type": "address"
        }
      ],
      "name": "readNFTTaxpayer",
      "outputs": [
        {
          "internalType": "uint256[]",
          "name": "",
          "type": "uint256[]"
        }
      ],
      "stateMutability": "view",
      "type": "function"
    },
    {
      "inputs": [
        {
          "internalType": "address[]",
          "name": "_addrBisnesman",
          "type": "address[]"
        },
        {
          "internalType": "address[]",
          "name": "_addrBudgetInstitution",
          "type": "address[]"
        }
      ],
      "name": "readTaxPaid",
      "outputs": [
        {
          "internalType": "uint256[][]",
          "name": "",
          "type": "uint256[][]"
        }
      ],
      "stateMutability": "view",
      "type": "function"
    },
    {
      "inputs": [
        {
          "internalType": "address[]",
          "name": "_addrBisnesman",
          "type": "address[]"
        },
        {
          "internalType": "address[]",
          "name": "_addrBudgetInstitution",
          "type": "address[]"
        }
      ],
      "name": "readTaxes",
      "outputs": [
        {
          "internalType": "uint256[][]",
          "name": "",
          "type": "uint256[][]"
        }
      ],
      "stateMutability": "view",
      "type": "function"
    },
    {
      "inputs": [
        {
          "internalType": "address",
          "name": "_addrNFT",
          "type": "address"
        }
      ],
      "name": "setAddrNFT",
      "outputs": [],
      "stateMutability": "nonpayable",
      "type": "function"
    },
    {
      "inputs": [
        {
          "internalType": "address[]",
          "name": "addrBisnesman",
          "type": "address[]"
        },
        {
          "internalType": "address[][]",
          "name": "addrBudgetInstitution",
          "type": "address[][]"
        },
        {
          "internalType": "uint256[][]",
          "name": "tax",
          "type": "uint256[][]"
        }
      ],
      "name": "taxDataDownload",
      "outputs": [],
      "stateMutability": "nonpayable",
      "type": "function"
    },
    {
      "inputs": [
        {
          "internalType": "address",
          "name": "",
          "type": "address"
        }
      ],
      "name": "taxpayers",
      "outputs": [
        {
          "internalType": "uint256",
          "name": "taxBalance",
          "type": "uint256"
        },
        {
          "internalType": "uint256",
          "name": "amountTax",
          "type": "uint256"
        },
        {
          "internalType": "bool",
          "name": "status",
          "type": "bool"
        },
        {
          "internalType": "bool",
          "name": "taxPaidNoDebt",
          "type": "bool"
        }
      ],
      "stateMutability": "view",
      "type": "function"
    },
    {
      "inputs": [],
      "name": "token",
      "outputs": [
        {
          "internalType": "contract IERC20",
          "name": "",
          "type": "address"
        }
      ],
      "stateMutability": "view",
      "type": "function"
    },
    {
      "inputs": [
        {
          "internalType": "address[]",
          "name": "_listTax",
          "type": "address[]"
        },
        {
          "internalType": "string[]",
          "name": "_listTaxNames",
          "type": "string[]"
        }
      ],
      "name": "uploadListTax",
      "outputs": [],
      "stateMutability": "nonpayable",
      "type": "function"
    }
  ],
  "bytecode": "0x608060405234801561001057600080fd5b50600280546001600160a01b031916331790556000600755612d5d806100376000396000f3fe608060405234801561001057600080fd5b50600436106100d45760003560e01c80638da5cb5b11610081578063b957bad41161005b578063b957bad4146101b6578063cc4c620c1461021c578063fc0c546a1461023c57600080fd5b80638da5cb5b1461016557806396c711f614610190578063a1b38c9a146101a357600080fd5b80631905e2f9116100b25780631905e2f91461012a57806321085bb51461013f57806333b7ac421461015257600080fd5b806312a39915146100d957806313410189146101025780631689132a14610115575b600080fd5b6100ec6100e7366004612324565b61024f565b6040516100f99190612390565b60405180910390f35b6100ec610110366004612324565b610402565b61011d6105ab565b6040516100f9919061241a565b61013d610138366004612483565b610681565b005b61013d61014d3660046124b6565b61113e565b61013d610160366004612550565b611974565b600254610178906001600160a01b031681565b6040516001600160a01b0390911681526020016100f9565b61013d61019e366004612324565b611a05565b6101786101b1366004612572565b611b1a565b6101f46101c4366004612550565b60006020819052908152604090206004810154600582015460069092015490919060ff8082169161010090041684565b60408051948552602085019390935290151591830191909152151560608201526080016100f9565b61022f61022a366004612550565b611b44565b6040516100f9919061258b565b600554610178906001600160a01b031681565b606060008467ffffffffffffffff81111561026c5761026c6125c3565b60405190808252806020026020018201604052801561029f57816020015b606081526020019060019003908161028a5790505b50905060005b858110156103f85760008467ffffffffffffffff8111156102c8576102c86125c3565b6040519080825280602002602001820160405280156102f1578160200160208202803683370190505b50905060005b858110156103c5576000808a8a86818110610314576103146125d9565b90506020020160208101906103299190612550565b6001600160a01b03166001600160a01b031681526020019081526020016000206001016000888884818110610360576103606125d9565b90506020020160208101906103759190612550565b6001600160a01b03166001600160a01b03168152602001908152602001600020548282815181106103a8576103a86125d9565b6020908102919091010152806103bd81612605565b9150506102f7565b50808383815181106103d9576103d96125d9565b60200260200101819052505080806103f090612605565b9150506102a5565b5095945050505050565b606060008467ffffffffffffffff81111561041f5761041f6125c3565b60405190808252806020026020018201604052801561045257816020015b606081526020019060019003908161043d5790505b50905060005b858110156103f85760008467ffffffffffffffff81111561047b5761047b6125c3565b6040519080825280602002602001820160405280156104a4578160200160208202803683370190505b50905060005b85811015610578576000808a8a868181106104c7576104c76125d9565b90506020020160208101906104dc9190612550565b6001600160a01b03166001600160a01b031681526020019081526020016000206000016000888884818110610513576105136125d9565b90506020020160208101906105289190612550565b6001600160a01b03166001600160a01b031681526020019081526020016000205482828151811061055b5761055b6125d9565b60209081029190910101528061057081612605565b9150506104aa565b508083838151811061058c5761058c6125d9565b60200260200101819052505080806105a390612605565b915050610458565b60606105d660405180604001604052806007815260200166037bbb732b91d160cd1b81525033611bb0565b6002546001600160a01b031633146106215760405162461bcd60e51b81526020600482015260096024820152682737ba1037bbb732b960b91b60448201526064015b60405180910390fd5b600380548060200260200160405190810160405280929190818152602001828054801561067757602002820191906000526020600020905b81546001600160a01b03168152600190910190602001808311610659575b5050505050905090565b604080518082018252600781527f7374617475733a000000000000000000000000000000000000000000000000006020808301919091526001600160a01b03851660009081529081905291822060060154829182916106e3919060ff16611c12565b6001600160a01b03851660009081526020819052604090206006015460ff1661074e5760405162461bcd60e51b815260206004820152601260248201527f5461785061796572206e6f7420666f756e6400000000000000000000000000006044820152606401610618565b600580546001600160a01b0319166001600160a01b03861617905560408051808201909152600f81527f5f746f6b656e20616464726573733a000000000000000000000000000000000060208201526107a79085611bb0565b6005546040517f70a082310000000000000000000000000000000000000000000000000000000081523360048201526001600160a01b03909116906370a0823190602401602060405180830381865afa158015610808573d6000803e3d6000fd5b505050506040513d601f19601f8201168201806040525081019061082c919061261e565b925061086d6040518060400160405280601481526020017f7265616c42616c616e636554617870617965723a00000000000000000000000081525084611c70565b600083116108bd5760405162461bcd60e51b815260206004820152600960248201527f4e6f20546f6b656e7300000000000000000000000000000000000000000000006044820152606401610618565b6108f1604051806060016040528060268152602001612d026026913933600090815260208190526040902060040154611c70565b6109306040518060400160405280600e81526020017f616464726573732874686973293a00000000000000000000000000000000000081525030611bb0565b6001600160a01b03851660009081526020819052604090206004015461095a90601285901b612637565b915061099b6040518060400160405280600681526020017f6b6f6566313a000000000000000000000000000000000000000000000000000081525083611c70565b620400008211156109ad576204000091505b6109ec6040518060400160405280600681526020017f6b6f6566323a000000000000000000000000000000000000000000000000000081525083611c70565b610a2b6040518060400160405280600b81526020017f6d73672e73656e6465723a00000000000000000000000000000000000000000081525033611bb0565b610a6a6040518060400160405280600e81526020017f616464726573732874686973293a00000000000000000000000000000000000081525030611bb0565b600554604051636eb1769f60e11b81523360048201523060248201526000916001600160a01b03169063dd62ed3e90604401602060405180830381865afa158015610ab9573d6000803e3d6000fd5b505050506040513d601f19601f82011682018060405250810190610add919061261e565b9050610b0a6040518060400160405280600981526020016830b63636b7b732bc9d60b91b81525082611c70565b60005b60035460ff82161015611135576001600160a01b03871660009081526020819052604081206003805483919060ff8616908110610b4c57610b4c6125d9565b60009182526020808320909101546001600160a01b03168352820192909252604001902054111561112357610be06040518060400160405280600781526020017f4275646765743a0000000000000000000000000000000000000000000000000081525060038360ff1681548110610bc657610bc66125d9565b6000918252602090912001546001600160a01b0316611bb0565b662386f26fc100006012856000808b6001600160a01b03166001600160a01b03168152602001908152602001600020600101600060038660ff1681548110610c2a57610c2a6125d9565b60009182526020808320909101546001600160a01b039081168452838201949094526040928301822054938e1682528190529081206003805491929160ff8916908110610c7957610c796125d9565b60009182526020808320909101546001600160a01b03168352820192909252604001902054610ca89190612659565b610cb2919061266c565b610cbd92911c612637565b610cce90662386f26fc1000061266c565b9250610d0f6040518060400160405280600481526020017f7461783a0000000000000000000000000000000000000000000000000000000081525084611c70565b600554600380546000926001600160a01b0316916323b872dd918b919060ff8716908110610d3f57610d3f6125d9565b60009182526020909120015460405160e084901b7fffffffff000000000000000000000000000000000000000000000000000000001681526001600160a01b03928316600482015291166024820152604481018790526064016020604051808303816000875af1158015610db7573d6000803e3d6000fd5b505050506040513d601f19601f82011682018060405250810190610ddb9190612683565b905080610e2a5760405162461bcd60e51b815260206004820152601560248201527f546f6b656e207472616e73666572206661696c656400000000000000000000006044820152606401610618565b6001600160a01b03881660009081526020819052604081206004018054869290610e55908490612659565b92505081905550836000808a6001600160a01b03166001600160a01b03168152602001908152602001600020600101600060038560ff1681548110610e9c57610e9c6125d9565b60009182526020808320909101546001600160a01b0316835282019290925260400181208054909190610ed09084906126a5565b92505081905550610f3d6040518060400160405280600b81526020017f74617842616c616e63653a0000000000000000000000000000000000000000008152506000808b6001600160a01b03166001600160a01b0316815260200190815260200160002060040154611c70565b610fdf6040518060400160405280600881526020017f746178506169643a0000000000000000000000000000000000000000000000008152506000808b6001600160a01b03166001600160a01b03168152602001908152602001600020600101600060038660ff1681548110610fb557610fb56125d9565b60009182526020808320909101546001600160a01b03168352820192909252604001902054611c70565b600554604051636eb1769f60e11b81523360048201523060248201526001600160a01b039091169063dd62ed3e90604401602060405180830381865afa15801561102d573d6000803e3d6000fd5b505050506040513d601f19601f82011682018060405250810190611051919061261e565b925061107e6040518060400160405280600981526020016830b63636b7b732bc9d60b91b81525084611c70565b6001600160a01b0388166000908152602081905260408120600401549003611121576001600160a01b03808916600090815260208181526040918290206006908101805461ff0019166101001790558251808401909352601583527f6e6674436f6e74726163742e616464726573733a200000000000000000000000918301919091525461110c9216611bb0565b600654611121906001600160a01b0316611cce565b505b8061112d816126b8565b915050610b0d565b50505050505050565b61116760405180604001604052806007815260200166037bbb732b91d160cd1b81525033611bb0565b6002546001600160a01b031633146111ad5760405162461bcd60e51b81526020600482015260096024820152682737ba1037bbb732b960b91b6044820152606401610618565b60005b85811015611953576040805160008082526020820190925290808989858181106111dc576111dc6125d9565b90506020020160208101906111f19190612550565b6001600160a01b03166001600160a01b03168152602001908152602001600020600301908051906020019061122792919061220b565b50600080600089898581811061123f5761123f6125d9565b90506020020160208101906112549190612550565b6001600160a01b03166001600160a01b031681526020019081526020016000206004018190555060005b858583818110611290576112906125d9565b90506020028101906112a291906126d7565b90508110156118ab576000808989858181106112c0576112c06125d9565b90506020020160208101906112d59190612550565b6001600160a01b03166001600160a01b03168152602001908152602001600020600101600087878581811061130c5761130c6125d9565b905060200281019061131e91906126d7565b8481811061132e5761132e6125d9565b90506020020160208101906113439190612550565b6001600160a01b03166001600160a01b03168152602001908152602001600020546000808a8a86818110611379576113796125d9565b905060200201602081019061138e9190612550565b6001600160a01b03166001600160a01b0316815260200190815260200160002060000160008888868181106113c5576113c56125d9565b90506020028101906113d791906126d7565b858181106113e7576113e76125d9565b90506020020160208101906113fc9190612550565b6001600160a01b03166001600160a01b03168152602001908152602001600020546114279190612659565b6000808a8a8681811061143c5761143c6125d9565b90506020020160208101906114519190612550565b6001600160a01b03166001600160a01b031681526020019081526020016000206002016000888886818110611488576114886125d9565b905060200281019061149a91906126d7565b858181106114aa576114aa6125d9565b90506020020160208101906114bf9190612550565b6001600160a01b031681526020810191909152604001600020558383838181106114eb576114eb6125d9565b90506020028101906114fd91906126d7565b8281811061150d5761150d6125d9565b905060200201356000808a8a86818110611529576115296125d9565b905060200201602081019061153e9190612550565b6001600160a01b03166001600160a01b031681526020019081526020016000206000016000888886818110611575576115756125d9565b905060200281019061158791906126d7565b85818110611597576115976125d9565b90506020020160208101906115ac9190612550565b6001600160a01b03166001600160a01b03168152602001908152602001600020819055506000808989858181106115e5576115e56125d9565b90506020020160208101906115fa9190612550565b6001600160a01b03166001600160a01b0316815260200190815260200160002060030186868481811061162f5761162f6125d9565b905060200281019061164191906126d7565b83818110611651576116516125d9565b90506020020160208101906116669190612550565b81546001810183556000928352602083200180546001600160a01b0319166001600160a01b039290921691909117905580808a8a868181106116aa576116aa6125d9565b90506020020160208101906116bf9190612550565b6001600160a01b03166001600160a01b0316815260200190815260200160002060010160008888868181106116f6576116f66125d9565b905060200281019061170891906126d7565b85818110611718576117186125d9565b905060200201602081019061172d9190612550565b6001600160a01b03168152602081019190915260400160002055838383818110611759576117596125d9565b905060200281019061176b91906126d7565b8281811061177b5761177b6125d9565b905060200201356000808a8a86818110611797576117976125d9565b90506020020160208101906117ac9190612550565b6001600160a01b03166001600160a01b0316815260200190815260200160002060040160008282546117de91906126a5565b90915550600190506000808a8a868181106117fb576117fb6125d9565b90506020020160208101906118109190612550565b6001600160a01b0316815260208101919091526040016000908120600601805460ff19169215159290921790915580808a8a86818110611852576118526125d9565b90506020020160208101906118679190612550565b6001600160a01b03168152602081019190915260400160002060060180549115156101000261ff0019909216919091179055806118a381612605565b91505061127e565b506000808888848181106118c1576118c16125d9565b90506020020160208101906118d69190612550565b6001600160a01b03166001600160a01b031681526020019081526020016000206004015460008089898581811061190f5761190f6125d9565b90506020020160208101906119249190612550565b6001600160a01b031681526020810191909152604001600020600501558061194b81612605565b9150506111b0565b5060016007600082825461196791906126a5565b9091555050505050505050565b61199d60405180604001604052806007815260200166037bbb732b91d160cd1b81525033611bb0565b6002546001600160a01b031633146119e35760405162461bcd60e51b81526020600482015260096024820152682737ba1037bbb732b960b91b6044820152606401610618565b600680546001600160a01b0319166001600160a01b0392909216919091179055565b611a2e60405180604001604052806007815260200166037bbb732b91d160cd1b81525033611bb0565b6002546001600160a01b03163314611a745760405162461bcd60e51b81526020600482015260096024820152682737ba1037bbb732b960b91b6044820152606401610618565b611a8060038585612270565b5060005b81811015611b1357828282818110611a9e57611a9e6125d9565b9050602002810190611ab09190612721565b60046000888886818110611ac657611ac66125d9565b9050602002016020810190611adb9190612550565b6001600160a01b03168152602081019190915260400160002091611b009190836127f1565b5080611b0b81612605565b915050611a84565b5050505050565b60038181548110611b2a57600080fd5b6000918252602090912001546001600160a01b0316905081565b6001600160a01b038116600090815260016020908152604091829020805483518184028101840190945280845260609392830182828015611ba457602002820191906000526020600020905b815481526020019060010190808311611b90575b50505050509050919050565b611c0e8282604051602401611bc6929190612901565b60408051601f198184030181529190526020810180516001600160e01b03167f319af33300000000000000000000000000000000000000000000000000000000179052612008565b5050565b611c0e8282604051602401611c2892919061292c565b60408051601f198184030181529190526020810180516001600160e01b03167fc3b5563500000000000000000000000000000000000000000000000000000000179052612008565b611c0e8282604051602401611c86929190612950565b60408051601f198184030181529190526020810180516001600160e01b03167fb60e72cc00000000000000000000000000000000000000000000000000000000179052612008565b604080516020810190915260008082528291905b33600090815260208190526040902060030154811015611e4d5733600090815260208190526040812060030180548492600492909185908110611d2757611d276125d9565b60009182526020808320909101546001600160a01b03168352828101939093526040918201812033825292819052908120600381018054611da59360019390930192919087908110611d7b57611d7b6125d9565b60009182526020808320909101546001600160a01b03168352820192909252604001902054612029565b33600090815260208190526040902060030154611dc490600190612659565b8410611ddf5760405180602001604052806000815250611e16565b6040518060400160405280600181526020017f2c000000000000000000000000000000000000000000000000000000000000008152505b604051602001611e29949392919061298e565b60405160208183030381529060405291508080611e4590612605565b915050611ce2565b506000611e5b600754612029565b611e6442612029565b33600090815260208190526040902060050154611e8090612029565b84604051602001611e949493929190612adf565b60408051601f19818403018152828201909152600282527f312d00000000000000000000000000000000000000000000000000000000000060208301529150611edc906120c9565b6040517fd204c45e0000000000000000000000000000000000000000000000000000000081526000906001600160a01b0385169063d204c45e90611f269033908690600401612cc4565b6020604051808303816000875af1158015611f45573d6000803e3d6000fd5b505050506040513d601f19601f82011682018060405250810190611f69919061261e565b9050611fa96040518060400160405280600281526020017f322d0000000000000000000000000000000000000000000000000000000000008152506120c9565b336000908152600160208181526040808420805493840181558452928190209091018390558151808301909252600282527f332d00000000000000000000000000000000000000000000000000000000000090820152611b13906120c9565b80516a636f6e736f6c652e6c6f67602083016000808483855afa5050505050565b6060600061203683612128565b600101905060008167ffffffffffffffff811115612056576120566125c3565b6040519080825280601f01601f191660200182016040528015612080576020820181803683370190505b5090508181016020015b600019017f3031323334353637383961626364656600000000000000000000000000000000600a86061a8153600a850494508461208a57509392505050565b612125816040516024016120dd9190612cee565b60408051601f198184030181529190526020810180516001600160e01b03167f41304fac00000000000000000000000000000000000000000000000000000000179052612008565b50565b6000807a184f03e93ff9f4daa797ed6e38ed64bf6a1f0100000000000000008310612171577a184f03e93ff9f4daa797ed6e38ed64bf6a1f010000000000000000830492506040015b6d04ee2d6d415b85acef8100000000831061219d576d04ee2d6d415b85acef8100000000830492506020015b662386f26fc1000083106121bb57662386f26fc10000830492506010015b6305f5e10083106121d3576305f5e100830492506008015b61271083106121e757612710830492506004015b606483106121f9576064830492506002015b600a8310612205576001015b92915050565b828054828255906000526020600020908101928215612260579160200282015b8281111561226057825182546001600160a01b0319166001600160a01b0390911617825560209092019160019091019061222b565b5061226c9291506122c3565b5090565b828054828255906000526020600020908101928215612260579160200282015b828111156122605781546001600160a01b0319166001600160a01b03843516178255602090920191600190910190612290565b5b8082111561226c57600081556001016122c4565b60008083601f8401126122ea57600080fd5b50813567ffffffffffffffff81111561230257600080fd5b6020830191508360208260051b850101111561231d57600080fd5b9250929050565b6000806000806040858703121561233a57600080fd5b843567ffffffffffffffff8082111561235257600080fd5b61235e888389016122d8565b9096509450602087013591508082111561237757600080fd5b50612384878288016122d8565b95989497509550505050565b6000602080830181845280855180835260408601915060408160051b87010192508387016000805b8381101561240c57888603603f19018552825180518088529088019088880190845b818110156123f65783518352928a0192918a01916001016123da565b50909750505093860193918601916001016123b8565b509398975050505050505050565b6020808252825182820181905260009190848201906040850190845b8181101561245b5783516001600160a01b031683529284019291840191600101612436565b50909695505050505050565b80356001600160a01b038116811461247e57600080fd5b919050565b6000806040838503121561249657600080fd5b61249f83612467565b91506124ad60208401612467565b90509250929050565b600080600080600080606087890312156124cf57600080fd5b863567ffffffffffffffff808211156124e757600080fd5b6124f38a838b016122d8565b9098509650602089013591508082111561250c57600080fd5b6125188a838b016122d8565b9096509450604089013591508082111561253157600080fd5b5061253e89828a016122d8565b979a9699509497509295939492505050565b60006020828403121561256257600080fd5b61256b82612467565b9392505050565b60006020828403121561258457600080fd5b5035919050565b6020808252825182820181905260009190848201906040850190845b8181101561245b578351835292840192918401916001016125a7565b634e487b7160e01b600052604160045260246000fd5b634e487b7160e01b600052603260045260246000fd5b634e487b7160e01b600052601160045260246000fd5b600060018201612617576126176125ef565b5060010190565b60006020828403121561263057600080fd5b5051919050565b60008261265457634e487b7160e01b600052601260045260246000fd5b500490565b81810381811115612205576122056125ef565b8082028115828204841417612205576122056125ef565b60006020828403121561269557600080fd5b8151801515811461256b57600080fd5b80820180821115612205576122056125ef565b600060ff821660ff81036126ce576126ce6125ef565b60010192915050565b6000808335601e198436030181126126ee57600080fd5b83018035915067ffffffffffffffff82111561270957600080fd5b6020019150600581901b360382131561231d57600080fd5b6000808335601e1984360301811261273857600080fd5b83018035915067ffffffffffffffff82111561275357600080fd5b60200191503681900382131561231d57600080fd5b600181811c9082168061277c57607f821691505b60208210810361279c57634e487b7160e01b600052602260045260246000fd5b50919050565b601f8211156127ec57600081815260208120601f850160051c810160208610156127c95750805b601f850160051c820191505b818110156127e8578281556001016127d5565b5050505b505050565b67ffffffffffffffff831115612809576128096125c3565b61281d836128178354612768565b836127a2565b6000601f84116001811461285157600085156128395750838201355b600019600387901b1c1916600186901b178355611b13565b600083815260209020601f19861690835b828110156128825786850135825560209485019460019092019101612862565b508682101561289f5760001960f88860031b161c19848701351681555b505060018560011b0183555050505050565b60005b838110156128cc5781810151838201526020016128b4565b50506000910152565b600081518084526128ed8160208601602086016128b1565b601f01601f19169290920160200192915050565b60408152600061291460408301856128d5565b90506001600160a01b03831660208301529392505050565b60408152600061293f60408301856128d5565b905082151560208301529392505050565b60408152600061296360408301856128d5565b90508260208301529392505050565b600081516129848185602086016128b1565b9290920192915050565b6000855160206129a18285838b016128b1565b81840191507f7b227461785f6e616d65223a22000000000000000000000000000000000000008252600d600088546129d881612768565b600182811680156129f05760018114612a0957612a39565b60ff198416888701528215158302880186019450612a39565b8c6000528660002060005b84811015612a2f5781548a8201890152908301908801612a14565b5050858389010194505b50505050612a66817f222c0000000000000000000000000000000000000000000000000000000000009052565b7f2276616c7565223a2200000000000000000000000000000000000000000000006002820152612a99600b820189612972565b9350505050612ac7817f227d0000000000000000000000000000000000000000000000000000000000009052565b612ad46002820185612972565b979650505050505050565b7f7b226e616d65223a22544158204e4654222c202020202020202022646573637281527f697074696f6e223a2250726f6f66206f66207061796d656e74206f662074617860208201527f6573202d20230000000000000000000000000000000000000000000000000000604082015260008551612b63816046850160208a016128b1565b7f222c2020202020202020226174726962757465223a5b7b2274726169745f74796046918401918201527f7065223a2244617465206f66207061796d656e74222c2276616c7565223a220060668201528551612bc6816085840160208a016128b1565b7f227d2c20202020202020207b2274726169745f74797065223a22416d6f756e74608592909101918201527f206f6620546178222c2276616c7565223a22000000000000000000000000000060a58201528451612c2a8160b78401602089016128b1565b612c8b612c8560b7838501017f227d2c20202020202020207b2274726169745f74797065223a224c697374206f81527f6620546178222c2276616c7565223a5b00000000000000000000000000000000602082015260300190565b86612972565b915050612cb7817f5d7d5d7d000000000000000000000000000000000000000000000000000000009052565b6004019695505050505050565b6001600160a01b0383168152604060208201526000612ce660408301846128d5565b949350505050565b60208152600061256b60208301846128d556fe7461787061796572735b5f616464724269736e65736d616e5d2e74617842616c616e63653a20a2646970667358221220c445707be2a77e0c49befceaa91f5dd4400f508c5771ee168ad040ab12bd88b064736f6c63430008120033",
  "linkReferences": {},
  "deployedLinkReferences": {}
}