{
  "_format": "hh-sol-artifact-1",
  "contractName": "NFTContract",
  "sourceName": "contracts/NFTContract.sol",
  "abi": [
    {
      "inputs": [],
      "stateMutability": "nonpayable",
      "type": "constructor"
    },
    {
      "anonymous": false,
      "inputs": [
        {
          "indexed": true,
          "internalType": "address",
          "name": "owner",
          "type": "address"
        },
        {
          "indexed": true,
          "internalType": "address",
          "name": "approved",
          "type": "address"
        },
        {
          "indexed": true,
          "internalType": "uint256",
          "name": "tokenId",
          "type": "uint256"
        }
      ],
      "name": "Approval",
      "type": "event"
    },
    {
      "anonymous": false,
      "inputs": [
        {
          "indexed": true,
          "internalType": "address",
          "name": "owner",
          "type": "address"
        },
        {
          "indexed": true,
          "internalType": "address",
          "name": "operator",
          "type": "address"
        },
        {
          "indexed": false,
          "internalType": "bool",
          "name": "approved",
          "type": "bool"
        }
      ],
      "name": "ApprovalForAll",
      "type": "event"
    },
    {
      "anonymous": false,
      "inputs": [
        {
          "indexed": true,
          "internalType": "address",
          "name": "previousOwner",
          "type": "address"
        },
        {
          "indexed": true,
          "internalType": "address",
          "name": "newOwner",
          "type": "address"
        }
      ],
      "name": "OwnershipTransferred",
      "type": "event"
    },
    {
      "anonymous": false,
      "inputs": [
        {
          "indexed": true,
          "internalType": "address",
          "name": "from",
          "type": "address"
        },
        {
          "indexed": true,
          "internalType": "address",
          "name": "to",
          "type": "address"
        },
        {
          "indexed": true,
          "internalType": "uint256",
          "name": "tokenId",
          "type": "uint256"
        }
      ],
      "name": "Transfer",
      "type": "event"
    },
    {
      "inputs": [
        {
          "internalType": "address",
          "name": "to",
          "type": "address"
        },
        {
          "internalType": "uint256",
          "name": "tokenId",
          "type": "uint256"
        }
      ],
      "name": "approve",
      "outputs": [],
      "stateMutability": "nonpayable",
      "type": "function"
    },
    {
      "inputs": [
        {
          "internalType": "address",
          "name": "owner",
          "type": "address"
        }
      ],
      "name": "balanceOf",
      "outputs": [
        {
          "internalType": "uint256",
          "name": "",
          "type": "uint256"
        }
      ],
      "stateMutability": "view",
      "type": "function"
    },
    {
      "inputs": [],
      "name": "changeOwner1",
      "outputs": [
        {
          "internalType": "uint256",
          "name": "",
          "type": "uint256"
        }
      ],
      "stateMutability": "view",
      "type": "function"
    },
    {
      "inputs": [
        {
          "internalType": "uint256",
          "name": "tokenId",
          "type": "uint256"
        }
      ],
      "name": "getApproved",
      "outputs": [
        {
          "internalType": "address",
          "name": "",
          "type": "address"
        }
      ],
      "stateMutability": "view",
      "type": "function"
    },
    {
      "inputs": [
        {
          "internalType": "address",
          "name": "owner",
          "type": "address"
        },
        {
          "internalType": "address",
          "name": "operator",
          "type": "address"
        }
      ],
      "name": "isApprovedForAll",
      "outputs": [
        {
          "internalType": "bool",
          "name": "",
          "type": "bool"
        }
      ],
      "stateMutability": "view",
      "type": "function"
    },
    {
      "inputs": [],
      "name": "name",
      "outputs": [
        {
          "internalType": "string",
          "name": "",
          "type": "string"
        }
      ],
      "stateMutability": "view",
      "type": "function"
    },
    {
      "inputs": [],
      "name": "owner",
      "outputs": [
        {
          "internalType": "address",
          "name": "",
          "type": "address"
        }
      ],
      "stateMutability": "view",
      "type": "function"
    },
    {
      "inputs": [
        {
          "internalType": "uint256",
          "name": "tokenId",
          "type": "uint256"
        }
      ],
      "name": "ownerOf",
      "outputs": [
        {
          "internalType": "address",
          "name": "",
          "type": "address"
        }
      ],
      "stateMutability": "view",
      "type": "function"
    },
    {
      "inputs": [],
      "name": "renounceOwnership",
      "outputs": [],
      "stateMutability": "nonpayable",
      "type": "function"
    },
    {
      "inputs": [
        {
          "internalType": "address",
          "name": "to",
          "type": "address"
        },
        {
          "internalType": "string",
          "name": "uri",
          "type": "string"
        }
      ],
      "name": "safeMint",
      "outputs": [
        {
          "internalType": "uint256",
          "name": "",
          "type": "uint256"
        }
      ],
      "stateMutability": "nonpayable",
      "type": "function"
    },
    {
      "inputs": [
        {
          "internalType": "address",
          "name": "from",
          "type": "address"
        },
        {
          "internalType": "address",
          "name": "to",
          "type": "address"
        },
        {
          "internalType": "uint256",
          "name": "tokenId",
          "type": "uint256"
        }
      ],
      "name": "safeTransferFrom",
      "outputs": [],
      "stateMutability": "nonpayable",
      "type": "function"
    },
    {
      "inputs": [
        {
          "internalType": "address",
          "name": "from",
          "type": "address"
        },
        {
          "internalType": "address",
          "name": "to",
          "type": "address"
        },
        {
          "internalType": "uint256",
          "name": "tokenId",
          "type": "uint256"
        },
        {
          "internalType": "bytes",
          "name": "data",
          "type": "bytes"
        }
      ],
      "name": "safeTransferFrom",
      "outputs": [],
      "stateMutability": "nonpayable",
      "type": "function"
    },
    {
      "inputs": [
        {
          "internalType": "address",
          "name": "operator",
          "type": "address"
        },
        {
          "internalType": "bool",
          "name": "approved",
          "type": "bool"
        }
      ],
      "name": "setApprovalForAll",
      "outputs": [],
      "stateMutability": "nonpayable",
      "type": "function"
    },
    {
      "inputs": [
        {
          "internalType": "bytes4",
          "name": "interfaceId",
          "type": "bytes4"
        }
      ],
      "name": "supportsInterface",
      "outputs": [
        {
          "internalType": "bool",
          "name": "",
          "type": "bool"
        }
      ],
      "stateMutability": "view",
      "type": "function"
    },
    {
      "inputs": [],
      "name": "symbol",
      "outputs": [
        {
          "internalType": "string",
          "name": "",
          "type": "string"
        }
      ],
      "stateMutability": "view",
      "type": "function"
    },
    {
      "inputs": [
        {
          "internalType": "uint256",
          "name": "tokenId",
          "type": "uint256"
        }
      ],
      "name": "tokenURI",
      "outputs": [
        {
          "internalType": "string",
          "name": "",
          "type": "string"
        }
      ],
      "stateMutability": "view",
      "type": "function"
    },
    {
      "inputs": [
        {
          "internalType": "address",
          "name": "from",
          "type": "address"
        },
        {
          "internalType": "address",
          "name": "to",
          "type": "address"
        },
        {
          "internalType": "uint256",
          "name": "tokenId",
          "type": "uint256"
        }
      ],
      "name": "transferFrom",
      "outputs": [],
      "stateMutability": "nonpayable",
      "type": "function"
    },
    {
      "inputs": [
        {
          "internalType": "address",
          "name": "newOwner",
          "type": "address"
        }
      ],
      "name": "transferOwnership",
      "outputs": [],
      "stateMutability": "nonpayable",
      "type": "function"
    }
  ],
  "bytecode": "0x60806040523480156200001157600080fd5b506040518060400160405280600681526020016515185e13919560d21b815250604051806040016040528060048152602001631513919560e21b81525081600090816200005f919062000191565b5060016200006e828262000191565b5050506200008b620000856200009660201b60201c565b6200009a565b60026009556200025d565b3390565b600780546001600160a01b038381166001600160a01b0319831681179093556040519116919082907f8be0079c531659141344cd1fd0a4f28419497f9722a3daafe3b4186f6b6457e090600090a35050565b634e487b7160e01b600052604160045260246000fd5b600181811c908216806200011757607f821691505b6020821081036200013857634e487b7160e01b600052602260045260246000fd5b50919050565b601f8211156200018c57600081815260208120601f850160051c81016020861015620001675750805b601f850160051c820191505b81811015620001885782815560010162000173565b5050505b505050565b81516001600160401b03811115620001ad57620001ad620000ec565b620001c581620001be845462000102565b846200013e565b602080601f831160018114620001fd5760008415620001e45750858301515b600019600386901b1c1916600185901b17855562000188565b600085815260208120601f198616915b828110156200022e578886015182559484019460019091019084016200020d565b50858210156200024d5787850151600019600388901b60f8161c191681555b5050505050600190811b01905550565b611c55806200026d6000396000f3fe608060405234801561001057600080fd5b50600436106101365760003560e01c8063715018a6116100b2578063b88d4fde11610081578063d204c45e11610066578063d204c45e14610270578063e985e9c514610283578063f2fde38b146102bf57600080fd5b8063b88d4fde1461024a578063c87b56dd1461025d57600080fd5b8063715018a6146102165780638da5cb5b1461021e57806395d89b411461022f578063a22cb4651461023757600080fd5b806323b872dd1161010957806347b994eb116100ee57806347b994eb146101de5780636352211e146101f057806370a082311461020357600080fd5b806323b872dd146101b857806342842e0e146101cb57600080fd5b806301ffc9a71461013b57806306fdde0314610163578063081812fc14610178578063095ea7b3146101a3575b600080fd5b61014e6101493660046116d4565b6102d2565b60405190151581526020015b60405180910390f35b61016b61036f565b60405161015a9190611741565b61018b610186366004611754565b610401565b6040516001600160a01b03909116815260200161015a565b6101b66101b1366004611789565b610428565b005b6101b66101c63660046117b3565b61055e565b6101b66101d93660046117b3565b6105d5565b6009545b60405190815260200161015a565b61018b6101fe366004611754565b6105f0565b6101e26102113660046117ef565b610655565b6101b66106ef565b6007546001600160a01b031661018b565b61016b610703565b6101b661024536600461180a565b610712565b6101b66102583660046118d2565b610721565b61016b61026b366004611754565b61079f565b6101e261027e36600461194e565b6107aa565b61014e6102913660046119b0565b6001600160a01b03918216600090815260056020908152604080832093909416825291909152205460ff1690565b6101b66102cd3660046117ef565b61089f565b60006001600160e01b031982167f80ac58cd00000000000000000000000000000000000000000000000000000000148061033557506001600160e01b031982167f5b5e139f00000000000000000000000000000000000000000000000000000000145b8061036957507f01ffc9a7000000000000000000000000000000000000000000000000000000006001600160e01b03198316145b92915050565b60606000805461037e906119e3565b80601f01602080910402602001604051908101604052809291908181526020018280546103aa906119e3565b80156103f75780601f106103cc576101008083540402835291602001916103f7565b820191906000526020600020905b8154815290600101906020018083116103da57829003601f168201915b5050505050905090565b600061040c8261092f565b506000908152600460205260409020546001600160a01b031690565b6000610433826105f0565b9050806001600160a01b0316836001600160a01b0316036104c15760405162461bcd60e51b815260206004820152602160248201527f4552433732313a20617070726f76616c20746f2063757272656e74206f776e6560448201527f720000000000000000000000000000000000000000000000000000000000000060648201526084015b60405180910390fd5b336001600160a01b03821614806104dd57506104dd8133610291565b61054f5760405162461bcd60e51b815260206004820152603d60248201527f4552433732313a20617070726f76652063616c6c6572206973206e6f7420746f60448201527f6b656e206f776e6572206f7220617070726f76656420666f7220616c6c00000060648201526084016104b8565b6105598383610993565b505050565b6105683382610a0e565b6105ca5760405162461bcd60e51b815260206004820152602d60248201527f4552433732313a2063616c6c6572206973206e6f7420746f6b656e206f776e6560448201526c1c881bdc88185c1c1c9bdd9959609a1b60648201526084016104b8565b610559838383610a8d565b61055983838360405180602001604052806000815250610721565b6000818152600260205260408120546001600160a01b0316806103695760405162461bcd60e51b815260206004820152601860248201527f4552433732313a20696e76616c696420746f6b656e204944000000000000000060448201526064016104b8565b60006001600160a01b0382166106d35760405162461bcd60e51b815260206004820152602960248201527f4552433732313a2061646472657373207a65726f206973206e6f74206120766160448201527f6c6964206f776e6572000000000000000000000000000000000000000000000060648201526084016104b8565b506001600160a01b031660009081526003602052604090205490565b6106f7610c93565b6107016000610ced565b565b60606001805461037e906119e3565b61071d338383610d4c565b5050565b61072b3383610a0e565b61078d5760405162461bcd60e51b815260206004820152602d60248201527f4552433732313a2063616c6c6572206973206e6f7420746f6b656e206f776e6560448201526c1c881bdc88185c1c1c9bdd9959609a1b60648201526084016104b8565b61079984848484610e1a565b50505050565b606061036982610e98565b60006107b4610c93565b60006107bf60085490565b90506107cf600880546001019055565b6107d98482610fa0565b6107e38184610fba565b6108226040518060400160405280600c81526020017f6e667420746f6b656e49643a00000000000000000000000000000000000000008152508261105c565b6108986040518060400160405280600c81526020017f6d73672e73656e6465723a200000000000000000000000000000000000000000815250336040518060400160405280600681526020017f2c20746f3a200000000000000000000000000000000000000000000000000000815250876110cf565b9392505050565b6108a7610c93565b6001600160a01b0381166109235760405162461bcd60e51b815260206004820152602660248201527f4f776e61626c653a206e6577206f776e657220697320746865207a65726f206160448201527f646472657373000000000000000000000000000000000000000000000000000060648201526084016104b8565b61092c81610ced565b50565b6000818152600260205260409020546001600160a01b031661092c5760405162461bcd60e51b815260206004820152601860248201527f4552433732313a20696e76616c696420746f6b656e204944000000000000000060448201526064016104b8565b6000818152600460205260409020805473ffffffffffffffffffffffffffffffffffffffff19166001600160a01b03841690811790915581906109d5826105f0565b6001600160a01b03167f8c5be1e5ebec7d5bd14f71427d1e84f3dd0314c0f7b2291e5b200ac8c7c3b92560405160405180910390a45050565b600080610a1a836105f0565b9050806001600160a01b0316846001600160a01b03161480610a6157506001600160a01b0380821660009081526005602090815260408083209388168352929052205460ff165b80610a855750836001600160a01b0316610a7a84610401565b6001600160a01b0316145b949350505050565b826001600160a01b0316610aa0826105f0565b6001600160a01b031614610b045760405162461bcd60e51b815260206004820152602560248201527f4552433732313a207472616e736665722066726f6d20696e636f72726563742060448201526437bbb732b960d91b60648201526084016104b8565b6001600160a01b038216610b7f5760405162461bcd60e51b8152602060048201526024808201527f4552433732313a207472616e7366657220746f20746865207a65726f2061646460448201527f726573730000000000000000000000000000000000000000000000000000000060648201526084016104b8565b826001600160a01b0316610b92826105f0565b6001600160a01b031614610bf65760405162461bcd60e51b815260206004820152602560248201527f4552433732313a207472616e736665722066726f6d20696e636f72726563742060448201526437bbb732b960d91b60648201526084016104b8565b6000818152600460209081526040808320805473ffffffffffffffffffffffffffffffffffffffff199081169091556001600160a01b0387811680865260038552838620805460001901905590871680865283862080546001019055868652600290945282852080549092168417909155905184937fddf252ad1be2c89b69c2b068fc378daa952ba7f163c4a11628f55a4df523b3ef91a4505050565b6007546001600160a01b031633146107015760405162461bcd60e51b815260206004820181905260248201527f4f776e61626c653a2063616c6c6572206973206e6f7420746865206f776e657260448201526064016104b8565b600780546001600160a01b0383811673ffffffffffffffffffffffffffffffffffffffff19831681179093556040519116919082907f8be0079c531659141344cd1fd0a4f28419497f9722a3daafe3b4186f6b6457e090600090a35050565b816001600160a01b0316836001600160a01b031603610dad5760405162461bcd60e51b815260206004820152601960248201527f4552433732313a20617070726f766520746f2063616c6c65720000000000000060448201526064016104b8565b6001600160a01b03838116600081815260056020908152604080832094871680845294825291829020805460ff191686151590811790915591519182527f17307eab39ab6107e8899845ad3d59bd9653f200f220920489ca2b5937696c31910160405180910390a3505050565b610e25848484610a8d565b610e3184848484611146565b6107995760405162461bcd60e51b815260206004820152603260248201527f4552433732313a207472616e7366657220746f206e6f6e20455243373231526560448201527131b2b4bb32b91034b6b83632b6b2b73a32b960711b60648201526084016104b8565b6060610ea38261092f565b60008281526006602052604081208054610ebc906119e3565b80601f0160208091040260200160405190810160405280929190818152602001828054610ee8906119e3565b8015610f355780601f10610f0a57610100808354040283529160200191610f35565b820191906000526020600020905b815481529060010190602001808311610f1857829003601f168201915b505050505090506000610f5360408051602081019091526000815290565b90508051600003610f65575092915050565b815115610f97578082604051602001610f7f929190611a1d565b60405160208183030381529060405292505050919050565b610a8584611292565b61071d828260405180602001604052806000815250611305565b6000828152600260205260409020546001600160a01b03166110445760405162461bcd60e51b815260206004820152602e60248201527f45524337323155524953746f726167653a2055524920736574206f66206e6f6e60448201527f6578697374656e7420746f6b656e00000000000000000000000000000000000060648201526084016104b8565b60008281526006602052604090206105598282611a9a565b61071d8282604051602401611072929190611b5a565b60408051601f198184030181529190526020810180517bffffffffffffffffffffffffffffffffffffffffffffffffffffffff167fb60e72cc00000000000000000000000000000000000000000000000000000000179052611383565b610799848484846040516024016110e99493929190611b7c565b60408051601f198184030181529190526020810180517bffffffffffffffffffffffffffffffffffffffffffffffffffffffff167faabc9a3100000000000000000000000000000000000000000000000000000000179052611383565b60006001600160a01b0384163b1561128757604051630a85bd0160e11b81526001600160a01b0385169063150b7a029061118a903390899088908890600401611bc6565b6020604051808303816000875af19250505080156111c5575060408051601f3d908101601f191682019092526111c291810190611c02565b60015b61126d573d8080156111f3576040519150601f19603f3d011682016040523d82523d6000602084013e6111f8565b606091505b5080516000036112655760405162461bcd60e51b815260206004820152603260248201527f4552433732313a207472616e7366657220746f206e6f6e20455243373231526560448201527131b2b4bb32b91034b6b83632b6b2b73a32b960711b60648201526084016104b8565b805181602001fd5b6001600160e01b031916630a85bd0160e11b149050610a85565b506001949350505050565b606061129d8261092f565b60006112b460408051602081019091526000815290565b905060008151116112d45760405180602001604052806000815250610898565b806112de846113a4565b6040516020016112ef929190611a1d565b6040516020818303038152906040529392505050565b61130f8383611444565b61131c6000848484611146565b6105595760405162461bcd60e51b815260206004820152603260248201527f4552433732313a207472616e7366657220746f206e6f6e20455243373231526560448201527131b2b4bb32b91034b6b83632b6b2b73a32b960711b60648201526084016104b8565b80516a636f6e736f6c652e6c6f67602083016000808483855afa5050505050565b606060006113b1836115dc565b600101905060008167ffffffffffffffff8111156113d1576113d1611846565b6040519080825280601f01601f1916602001820160405280156113fb576020820181803683370190505b5090508181016020015b600019017f3031323334353637383961626364656600000000000000000000000000000000600a86061a8153600a850494508461140557509392505050565b6001600160a01b03821661149a5760405162461bcd60e51b815260206004820181905260248201527f4552433732313a206d696e7420746f20746865207a65726f206164647265737360448201526064016104b8565b6000818152600260205260409020546001600160a01b0316156114ff5760405162461bcd60e51b815260206004820152601c60248201527f4552433732313a20746f6b656e20616c7265616479206d696e7465640000000060448201526064016104b8565b6000818152600260205260409020546001600160a01b0316156115645760405162461bcd60e51b815260206004820152601c60248201527f4552433732313a20746f6b656e20616c7265616479206d696e7465640000000060448201526064016104b8565b6001600160a01b0382166000818152600360209081526040808320805460010190558483526002909152808220805473ffffffffffffffffffffffffffffffffffffffff19168417905551839291907fddf252ad1be2c89b69c2b068fc378daa952ba7f163c4a11628f55a4df523b3ef908290a45050565b6000807a184f03e93ff9f4daa797ed6e38ed64bf6a1f0100000000000000008310611625577a184f03e93ff9f4daa797ed6e38ed64bf6a1f010000000000000000830492506040015b6d04ee2d6d415b85acef81000000008310611651576d04ee2d6d415b85acef8100000000830492506020015b662386f26fc10000831061166f57662386f26fc10000830492506010015b6305f5e1008310611687576305f5e100830492506008015b612710831061169b57612710830492506004015b606483106116ad576064830492506002015b600a83106103695760010192915050565b6001600160e01b03198116811461092c57600080fd5b6000602082840312156116e657600080fd5b8135610898816116be565b60005b8381101561170c5781810151838201526020016116f4565b50506000910152565b6000815180845261172d8160208601602086016116f1565b601f01601f19169290920160200192915050565b6020815260006108986020830184611715565b60006020828403121561176657600080fd5b5035919050565b80356001600160a01b038116811461178457600080fd5b919050565b6000806040838503121561179c57600080fd5b6117a58361176d565b946020939093013593505050565b6000806000606084860312156117c857600080fd5b6117d18461176d565b92506117df6020850161176d565b9150604084013590509250925092565b60006020828403121561180157600080fd5b6108988261176d565b6000806040838503121561181d57600080fd5b6118268361176d565b91506020830135801515811461183b57600080fd5b809150509250929050565b634e487b7160e01b600052604160045260246000fd5b600067ffffffffffffffff8084111561187757611877611846565b604051601f8501601f19908116603f0116810190828211818310171561189f5761189f611846565b816040528093508581528686860111156118b857600080fd5b858560208301376000602087830101525050509392505050565b600080600080608085870312156118e857600080fd5b6118f18561176d565b93506118ff6020860161176d565b925060408501359150606085013567ffffffffffffffff81111561192257600080fd5b8501601f8101871361193357600080fd5b6119428782356020840161185c565b91505092959194509250565b6000806040838503121561196157600080fd5b61196a8361176d565b9150602083013567ffffffffffffffff81111561198657600080fd5b8301601f8101851361199757600080fd5b6119a68582356020840161185c565b9150509250929050565b600080604083850312156119c357600080fd5b6119cc8361176d565b91506119da6020840161176d565b90509250929050565b600181811c908216806119f757607f821691505b602082108103611a1757634e487b7160e01b600052602260045260246000fd5b50919050565b60008351611a2f8184602088016116f1565b835190830190611a438183602088016116f1565b01949350505050565b601f82111561055957600081815260208120601f850160051c81016020861015611a735750805b601f850160051c820191505b81811015611a9257828155600101611a7f565b505050505050565b815167ffffffffffffffff811115611ab457611ab4611846565b611ac881611ac284546119e3565b84611a4c565b602080601f831160018114611afd5760008415611ae55750858301515b600019600386901b1c1916600185901b178555611a92565b600085815260208120601f198616915b82811015611b2c57888601518255948401946001909101908401611b0d565b5085821015611b4a5787850151600019600388901b60f8161c191681555b5050505050600190811b01905550565b604081526000611b6d6040830185611715565b90508260208301529392505050565b608081526000611b8f6080830187611715565b6001600160a01b0380871660208501528382036040850152611bb18287611715565b92508085166060850152505095945050505050565b60006001600160a01b03808716835280861660208401525083604083015260806060830152611bf86080830184611715565b9695505050505050565b600060208284031215611c1457600080fd5b8151610898816116be56fea2646970667358221220ab3fe063984817dff04426e46eaf356c1bdc1cedfaa6abe7c9f12f643b07eabe64736f6c63430008120033",
  "linkReferences": {},
  "deployedLinkReferences": {}
}